:020000040800F2
:100000000000022005020008550200085502000801
:1000100055020008550200085502000800000000C3
:100020000000000000000000000000005502000871
:1000300055020008000000005502000855020008A3
:100040005502000855020008550200085502000834
:100050005502000855020008550200085502000824
:100060005502000855020008550200085502000814
:100070005502000855020008550200085502000804
:1000800055020008550200085502000855020008F4
:1000900055020008550200085502000855020008E4
:1000A00055020008550200085502000855020008D4
:1000B00055020008550200085502000855020008C4
:1000C00055020008550200085502000855020008B4
:1000D00055020008550200085502000855020008A4
:1000E0005502000855020008550200085502000894
:1000F0005502000855020008550200085502000884
:100100005502000855020008550200085502000873
:100110005502000855020008550200085502000863
:100120005502000855020008550200085502000853
:100130005502000800000000000000005502000801
:100140005502000855020008550200085502000833
:100150005502000855020008550200085502000823
:100160005502000855020008550200085502000813
:100170005502000855020008550200080000000062
:100180000000000055020008000000000000000010
:1001900055020008000000000000000055020008A1
:1001A00000000000000000000000000055020008F0
:1001B00055020008550200085502000855020008C3
:0401C00055020008DC
:1001C40010B5054C237833B9044B13B10448AFF38D
:1001D40000800123237010BD0400002000000000F3
:1001E4006409000808B5034B1BB103490348AFF386
:1001F400008008BD00000000080000206409000819
:10020400DFF834D00D480E490E4A002302E0D458DA
:10021400C4500433C4188C42F9D30B4A0B4C00234A
:1002240001E013600432A242FBD300F055F800F061
:1002340073FB00F095F870470000022000000020D6
:1002440004000020DC0B0008040000202000002033
:10025400FEE700001C4B1A6842F480321A601A68E8
:100264009103FCD51A6C194942F080521A640A6849
:1002740042F440420A60164A40F205711160154A80
:100284005A601A6842F080721A600F4B1A68920121
:10029400FCD59A689A609A6842F4A0529A609A6867
:1002A40042F400429A609A6822F003029A609A68C3
:1002B40042F002029A60044A936803F00C03082B8C
:1002C400FAD100F013B800BF0038024000700040BB
:1002D400003C0240085A4007034AD2F8883043F4ED
:1002E4007003C2F88830704700ED00E0174A1849DF
:1002F400936803F00C03042B0DD0082B0DD0154B81
:100304000B60124B144A9B68C3F30313D25C0B6853
:10031400D3400B607047114BF2E75368506813F4F5
:10032400800F00F03F00536814BF0C4A094AB2FB27
:10033400F0F0064A5268C2F30142C3F38813013253
:1003440043435200B3FBF2F3DAE700BF0038024044
:10035400000000200024F4007C09000840787D019E
:1003640008B5FFF777FF00F0D7F900F029FAFEE7A8
:1003740003681B06FCD54160704708B54A1E12F895
:10038400011F01B908BDFFF7F3FFF8E703689B06F7
:10039400FCD54068C0B270470068C0F34010704795
:1003A4001D4B1A6B42F001021A631A6C42F40032BC
:1003B4001A64A3F560531A6822F0F0021A601A68EE
:1003C40042F0A0021A601A6A22F47F421A621A6A80
:1003D40042F4EE421A629A6842F0F0029A605A6855
:1003E40022F00C025A60DA6822F0F002DA60A3F517
:1003F400DE3300225A611A61DA6000EB5102B2FB6B
:10040400F1F29A60DA6842F4005242F00C02DA60C7
:100414001A685B68704700BF003802401D4B1A6BB6
:1004240042F001021A635A6C42F010025A64A3F5B6
:1004340060531A6822F470121A601A6842F4201287
:100444001A605A6A22F47F625A625A6A42F4EE626D
:100454005A629A6842F470129A605A6822F4C0622E
:100464005A60DA6822F47012DA60A3F5704300224D
:100474005A611A61DA6000EB5102B2FBF1F29A6040
:10048400DA6842F4005242F00C02DA601A685B68DF
:10049400704700BF003802402D4B1A6B42F0020235
:1004A40010B51A631A6B42F004021A631A6C42F410
:1004B40080221A64274A136823F4401313601368D4
:1004C40043F400131360244B1C6824F440641C6040
:1004D4001C6844F400641C60546A24F4706454621C
:1004E400546A44F4E06454621C6A24F470041C6288
:1004F4001C6A44F4E0041C62946844F4401494605C
:100504009C6844F440649C60546824F4806454609F
:100514005C6824F020045C60D46824F44014D46043
:10052400DA6822F44062DA60A3F5E03300225A610B
:100534001A61DA6000EB5102B2FBF1F29A60DA68F8
:1005440042F4005242F00C02DA601A685B6810BD93
:100554000038024000040240000802401D4B1A6BA0
:1005640042F001021A631A6C42F400221A64A3F5E1
:1005740060531A6822F00F021A601A6842F00A02E5
:100584001A601A6A22F0FF021A621A6A42F088029A
:100594001A629A6842F00F029A605A6822F00302C3
:1005A4005A60DA6822F00F02DA60A3F5DA33002227
:1005B4005A611A61DA6000EB5102B2FBF1F29A60FF
:1005C400DA6842F4005242F00C02DA601A685B689E
:1005D400704700BF003802402D4B1A6B42F00402F2
:1005E40010B51A631A6B42F008021A631A6C42F4CB
:1005F40080121A64274A136823F040731360136847
:1006040043F000731360244B1C6824F030041C6016
:100614001C6844F020041C60546A24F4702454625E
:10062400546A44F4002454621C6A24F470641C6206
:100634001C6A44F400641C62946844F0407494603E
:100644009C6844F030049C60546824F480545460E2
:100654005C6824F004045C60D46824F04074D460C2
:10066400DA6822F03002DA60A3F5DE3300225A6140
:100674001A61DA6000EB5102B2FBF1F29A60DA68B7
:1006840042F4005242F00C02DA601A685B6810BD52
:100694000038024000080240000C02401D4B1A6B57
:1006A40042F004021A635A6C42F020025A64A3F521
:1006B40040531A6822F470421A601A6842F42042C5
:1006C4001A601A6A22F07F421A621A6A42F00842D9
:1006D4001A629A6842F470429A605A6822F0C00220
:1006E4005A60DA6822F47042DA60A3F57443002297
:1006F4005A611A61DA6000EB5102B2FBF1F29A60BE
:10070400DA6842F4005242F00C02DA601A685B685C
:10071400704700BF0038024070B51F4D1F4C204E7B
:1007240028464FF4E131FFF73BFE20461D49FFF711
:1007340024FE30464FF4E131FFF770FE20461A499B
:10074400FFF71BFE28464FF4E131FFF7A5FE2046D4
:100754001649FFF712FE28464FF4E131FFF7FEFE7B
:1007640020461349FFF709FE28464FF4E131FFF70D
:1007740033FF20460F49FFF700FE30464FF4E131C6
:10078400FFF78CFF20460C49FFF7F7FD20460B4985
:10079400BDE87040FFF7F1BD40A5AE020044004043
:1007A400804A5D058C090008B5090008DE090008C7
:1007B400070A00082E0A0008560A00087E0A0008E4
:1007C400424A136B43F001032DE9F0411363404B9C
:1007D400404D1A68404C414E22F440621A601A6837
:1007E40042F480621A603E4FDFF828812046FFF70A
:1007F400D3FDB8B12046FFF7C9FD354A53693138F6
:1008040083F02003536105285DD8DFE800F0035C22
:10081400444A505633494046FFF7AFFD324920461B
:10082400FFF7ABFD4046FFF7B7FD30B14046FFF799
:10083400ADFD01462046FFF79BFD2C48FFF7ACFDBC
:1008440030B12A48FFF7A2FD01462046FFF790FD8C
:100854003046FFF7A1FD30B13046FFF797FD014662
:100864002046FFF785FD3846FFF796FD30B1384640
:10087400FFF78CFD01462046FFF77AFD2846FFF777
:100884008BFD0028B2D02846FFF780FD01462046A4
:10089400FFF76EFDA7E716491448FFF76EFD1549EB
:1008A400BDE715493046FFF768FD1449B7E7144919
:1008B4003846FFF762FD1349B1E713492846FFF7AD
:1008C4005CFD1249ABE71249A9E700BF00380240BA
:1008D400000002400014014000440040004C00406D
:1008E40000500040B40A0008D10A00080048004043
:1008F400E70A0008040B00081A0B0008360B00086E
:100904004B0B0008670B00087C0B0008990B0008D0
:10091400AF0B00080010014070B50D4D0D4C641B69
:10092400A4100026A64209D10B4D0C4C00F018F877
:10093400641BA4100026A64205D170BD55F8043BE3
:1009440098470136EEE755F8043B98470136F2E73D
:10095400D40B0008D40B0008D40B0008D80B0008F3
:10096400F8B500BFF8BC08BC9E467047F8B500BF98
:08097400F8BC08BC9E46704768
:10097C000000000000000000010203040607080943
:10098C000D0A5B424F4F545D205553415254323A3D
:10099C0020555342207669727475616C20434F4D1B
:1009AC002072656164790D0A005B424F4F545D20E3
:1009BC005553415254313A20526561647920285084
:1009CC0041392D54582C20504131302D5258290D7D
:1009DC000A005B424F4F545D205553415254333AF9
:1009EC002052656164792028504231302D54582CA6
:1009FC00205043352D5258290D0A005B424F4F545D
:100A0C005D2055415254343A205265616479202856
:100A1C005041302D54582C205041312D5258290D15
:100A2C000A005B424F4F545D2055415254353A20D9
:100A3C0052656164792028504331322D54582C2052
:100A4C005044322D5258290D0A005B424F4F545DD1
:100A5C00205553415254363A20526561647920280E
:100A6C005043362D54582C205043372D5258290DB5
:100A7C000A000D0A5B494E464F5D205541525420E9
:100A8C00746573742072656164792E205479706575
:100A9C002031E280933620746F2070696E67205588
:100AAC00415254732E0D0A0050696E672066726FA6
:100ABC006D20555341525432202D3E2055534152F6
:100ACC0054310D0A005B54585D2053656E742074CC
:100ADC006F205553415254310D0A0050696E6720F6
:100AEC0066726F6D20555341525432202D3E205565
:100AFC0053415254330D0A005B54585D2053656EBC
:100B0C007420746F205553415254330D0A005069B0
:100B1C006E672066726F6D20555341525432202DF2
:100B2C003E2055415254340D0A005B54585D2053FD
:100B3C00656E7420746F2055415254340D0A005068
:100B4C00696E672066726F6D205553415254322086
:100B5C002D3E2055415254350D0A005B54585D20F2
:100B6C0053656E7420746F2055415254350D0A0034
:100B7C0050696E672066726F6D2055534152543226
:100B8C00202D3E205553415254360D0A005B5458CB
:100B9C005D2053656E7420746F205553415254364A
:100BAC000D0A005B48454C505D20507265737320F4
:100BBC0031E280933620746F207465737420554134
:080BCC005254730D0A000000F1
:040BD400E90100082B
:040BD800C50100084B
:040BDC000024F400FD
:0400000508000205E8
:00000001FF
