:020000040800F2
:100000000000022005020008550200085502000801
:1000100055020008550200085502000800000000C3
:100020000000000000000000000000005502000871
:1000300055020008000000005502000855020008A3
:100040005502000855020008550200085502000834
:100050005502000855020008550200085502000824
:100060005502000855020008550200085502000814
:100070005502000855020008550200085502000804
:1000800055020008550200085502000855020008F4
:1000900055020008550200085502000855020008E4
:1000A00055020008550200085502000855020008D4
:1000B00055020008550200085502000855020008C4
:1000C00055020008550200085502000855020008B4
:1000D00055020008550200085502000855020008A4
:1000E0005502000855020008550200085502000894
:1000F0005502000855020008550200085502000884
:100100005502000855020008550200085502000873
:100110005502000855020008550200085502000863
:100120005502000855020008550200085502000853
:100130005502000800000000000000005502000801
:100140005502000855020008550200085502000833
:100150005502000855020008550200085502000823
:100160005502000855020008550200085502000813
:100170005502000855020008550200080000000062
:100180000000000055020008000000000000000010
:1001900055020008000000000000000055020008A1
:1001A00000000000000000000000000055020008F0
:1001B00055020008550200085502000855020008C3
:0401C00055020008DC
:1001C40010B5054C237833B9044B13B10448AFF38D
:1001D40000800123237010BD0400002000000000F3
:1001E400E008000808B5034B1BB103490348AFF30B
:1001F400008008BD0000000008000020E00800089E
:10020400DFF834D00D480E490E4A002302E0D458DA
:10021400C4500433C4188C42F9D30B4A0B4C00234A
:1002240001E013600432A242FBD300F055F800F061
:1002340031FB00F095F87047000002200000002018
:1002440004000020D0090008040000202000002041
:10025400FEE700001C4B1A6842F480321A601A68E8
:100264009103FCD51A6C194942F080521A640A6849
:1002740042F440420A60164A40F205711160154A80
:100284005A601A6842F080721A600F4B1A68920121
:10029400FCD59A689A609A6842F4A0529A609A6867
:1002A40042F400429A609A6822F003029A609A68C3
:1002B40042F002029A60044A936803F00C03082B8C
:1002C400FAD100F013B800BF0038024000700040BB
:1002D400003C0240085A4007034AD2F8883043F4ED
:1002E4007003C2F88830704700ED00E0174A1849DF
:1002F400936803F00C03042B0DD0082B0DD0154B81
:100304000B60124B144A9B68C3F30313D25C0B6853
:10031400D3400B607047114BF2E75368506813F4F5
:10032400800F00F03F00536814BF0C4A094AB2FB27
:10033400F0F0064A5268C2F30142C3F38813013253
:1003440043435200B3FBF2F3DAE700BF0038024044
:10035400000000200024F400F808000840787D0123
:10036400F8B5FFF777FF514A514C136B5148524D82
:10037400524E43F001031363236843F48063236004
:10038400236823F4006323604FF4E13100F0C6F8DE
:100394004B49494800F0AFF84A484FF4E13100F0C6
:1003A400FBF84949494800F0A6F842484FF4E131C6
:1003B40000F030F94649474800F09DF83D484FF4B5
:1003C400E13100F089F94449444800F094F839488F
:1003D4004FF4E13100F0BEF94149424800F08BF896
:1003E40038484FF4E13100F017FA3F49334800F040
:1003F40082F8364F284600F08DF850B1284600F0B8
:1004040083F80146304600F071F8636983F02003F5
:100414006361384600F07EF850B1384600F074F855
:100424000146284600F062F8636983F020036361A3
:10043400284800F06FF850B1264800F065F80146EE
:10044400284600F053F8636983F02003636123486E
:1004540000F060F850B1214800F056F801462846F3
:1004640000F044F8636983F0200363611D4800F0E1
:1004740051F850B11B4800F047F80146284600F0F7
:1004840035F8636983F020036361304600F042F875
:100494000028AFD0304600F037F80146284600F077
:1004A40025F8636983F020036361A2E70038024002
:1004B4000000024040A5AE02004400400014014088
:1004C40008090008804A5D05280900080010014059
:1004D400480900080048004068090008004C004032
:1004E4008809000800500040A809000803681B069A
:1004F400FCD54160704708B54A1E12F8011F01B9C6
:1005040008BDFFF7F3FFF8E703689B06FCD54068D6
:10051400C0B270470068C0F3401070471D4B1A6B9F
:1005240042F001021A631A6C42F400321A64A3F511
:1005340060531A6822F0F0021A601A6842F0A002AE
:100544001A601A6A22F47F421A621A6A42F4EE426C
:100554001A629A6842F0F0029A605A6822F00C0219
:100564005A60DA6822F0F002DA60A3F5DE33002282
:100574005A611A61DA6000EB5102B2FBF1F29A603F
:10058400DA6842F4005242F00C02DA601A685B68DE
:10059400704700BF003802401D4B1A6B42F0010245
:1005A4001A635A6C42F010025A64A3F560531A6835
:1005B40022F470121A601A6842F420121A605A6AFD
:1005C40022F47F625A625A6A42F4EE625A629A686C
:1005D40042F470129A605A6822F4C0625A60DA686F
:1005E40022F47012DA60A3F5704300225A611A6192
:1005F400DA6000EB5102B2FBF1F29A60DA6842F47D
:10060400005242F00C02DA601A685B68704700BF5F
:10061400003802402D4B1A6B42F0020210B51A63E7
:100624001A6B42F004021A631A6C42F480221A64B0
:10063400274A136823F440131360136843F4001328
:100644001360244B1C6824F440641C601C6844F44C
:1006540000641C60546A24F470645462546A44F460
:10066400E06454621C6A24F470041C621C6A44F43E
:10067400E0041C62946844F4401494609C6844F45C
:1006840040649C60546824F4806454605C6824F082
:1006940020045C60D46824F44014D460DA6822F442
:1006A4004062DA60A3F5E03300225A611A61DA602D
:1006B40000EB5102B2FBF1F29A60DA6842F40052A4
:1006C40042F00C02DA601A685B6810BD0038024020
:1006D40000040240000802401D4B1A6B42F0010264
:1006E4001A631A6C42F400221A64A3F560531A6860
:1006F40022F00F021A601A6842F00A021A601A6A9B
:1007040022F0FF021A621A6A42F088021A629A6898
:1007140042F00F029A605A6822F003025A60DA68C3
:1007240022F00F02DA60A3F5DA3300225A611A616B
:10073400DA6000EB5102B2FBF1F29A60DA6842F43B
:10074400005242F00C02DA601A685B68704700BF1E
:10075400003802402D4B1A6B42F0040210B51A63A4
:100764001A6B42F008021A631A6C42F480121A647B
:10077400274A136823F040731360136843F000732F
:100784001360244B1C6824F030041C601C6844F083
:1007940020041C60546A24F470245462546A44F49F
:1007A400002454621C6A24F470641C621C6A44F4BD
:1007B40000641C62946844F0407494609C6844F043
:1007C40030049C60546824F4805454605C6824F0C1
:1007D40004045C60D46824F04074D460DA6822F0C5
:1007E4003002DA60A3F5DE3300225A611A61DA605E
:1007F40000EB5102B2FBF1F29A60DA6842F4005263
:1008040042F00C02DA601A685B6810BD00380240DE
:1008140000080240000C02401D4B1A6B42F0040217
:100824001A635A6C42F020025A64A3F540531A68C2
:1008340022F470421A601A6842F420421A601A6A5A
:1008440022F07F421A621A6A42F008421A629A68D7
:1008540042F470429A605A6822F0C0025A60DA6820
:1008640022F47042DA60A3F5744300225A611A61DB
:10087400DA6000EB5102B2FBF1F29A60DA6842F4FA
:10088400005242F00C02DA601A685B68704700BFDD
:100894000038024070B50D4D0D4C641BA4100026A9
:1008A400A64209D10B4D0C4C00F018F8641BA4109F
:1008B4000026A64205D170BD55F8043B9847013681
:1008C400EEE755F8043B98470136F2E7C8090008FB
:1008D400C8090008C8090008CC090008F8B500BF19
:1008E400F8BC08BC9E467047F8B500BFF8BC08BC0D
:0408F4009E46704765
:1008F80000000000000000000102030406070809C8
:100908005553415254323A205553422076697274F5
:1009180075616C20434F4D2072656164790D0A0042
:100928005553415254313A2045787465726E616C62
:10093800206465766963652072656164790D0A00D3
:100948005553415254333A2045787465726E616C40
:10095800206465766963652072656164790D0A00B3
:100968005553415254343A2045787465726E616C1F
:10097800206465766963652072656164790D0A0093
:100988005553415254353A2045787465726E616CFE
:10099800206465766963652072656164790D0A0073
:1009A8005553415254363A2045787465726E616CDD
:1009B800206465766963652072656164790D0A0053
:0409C800E901000839
:0409CC00C501000859
:0409D0000024F4000B
:0400000508000205E8
:00000001FF
