:020000040800F2
:100000000000022005020008550200085502000801
:1000100055020008550200085502000800000000C3
:100020000000000000000000000000005502000871
:1000300055020008000000005502000855020008A3
:100040005502000855020008550200085502000834
:100050005502000855020008550200085502000824
:100060005502000855020008550200085502000814
:100070005502000855020008550200085502000804
:1000800055020008550200085502000855020008F4
:1000900055020008550200085502000855020008E4
:1000A00055020008550200085502000855020008D4
:1000B00055020008550200085502000855020008C4
:1000C00055020008550200085502000855020008B4
:1000D00055020008550200085502000855020008A4
:1000E0005502000855020008550200085502000894
:1000F0005502000855020008550200085502000884
:100100005502000855020008550200085502000873
:100110005502000855020008550200085502000863
:100120005502000855020008550200085502000853
:100130005502000800000000000000005502000801
:100140005502000855020008550200085502000833
:100150005502000855020008550200085502000823
:100160005502000855020008550200085502000813
:100170005502000855020008550200080000000062
:100180000000000055020008000000000000000010
:1001900055020008000000000000000055020008A1
:1001A00000000000000000000000000055020008F0
:1001B00055020008550200085502000855020008C3
:0401C00055020008DC
:1001C40010B5054C237833B9044B13B10448AFF38D
:1001D40000800123237010BD0400002000000000F3
:1001E400A007000808B5034B1BB103490348AFF34C
:1001F400008008BD0000000008000020A0070008DF
:10020400DFF834D00D480E490E4A002302E0D458DA
:10021400C4500433C4188C42F9D30B4A0B4C00234A
:1002240001E013600432A242FBD300F055F800F061
:1002340091FA00F095F870470000022000000020B9
:10024400040000201C0A00080400002020000020F4
:10025400FEE700001C4B1A6842F480321A601A68E8
:100264009103FCD51A6C194942F080521A640A6849
:1002740042F440420A60164A40F205711160154A80
:100284005A601A6842F080721A600F4B1A68920121
:10029400FCD59A689A609A6842F4A0529A609A6867
:1002A40042F400429A609A6822F003029A609A68C3
:1002B40042F002029A60044A936803F00C03082B8C
:1002C400FAD100F013B800BF0038024000700040BB
:1002D400003C0240085A4007034AD2F8883043F4ED
:1002E4007003C2F88830704700ED00E0174A1849DF
:1002F400936803F00C03042B0DD0082B0DD0154B81
:100304000B60124B144A9B68C3F30313D25C0B6853
:10031400D3400B607047114BF2E75368506813F4F5
:10032400800F00F03F00536814BF0C4A094AB2FB27
:10033400F0F0064A5268C2F30142C3F38813013253
:1003440043435200B3FBF2F3DAE700BF0038024044
:10035400000000200024F400B807000840787D0164
:1003640008B5FFF777FF00F0E5F800F047F9FEE77E
:10037400F0B500F13F431A4C03F57E03266B0125CB
:100384009B0A05FA03F333432363066801FA05F76E
:100394000323BB4026EA0306066006680224BC4029
:1003A4003443046084681C43846044688D4024EAB8
:1003B40005054560C46824EA0303C360CB0800EB69
:1003C400830001F00701036A89000F248C4023EAAB
:1003D40004030362036A8A401A430262F0BD00BF49
:1003E400003802403C4B984270B504460D46164610
:1003F40020D13A4A3A48536C43F01003536409211C
:100404000722FFF7B5FF07220A213548FFF7B0FF9F
:100414000023636105EB56012361B1FBF6F1E36050
:10042400A160E36843F4005343F00C03E3602368E2
:10043400636870BD2B4B98420CD1284A2848136C32
:1004440043F40033136402210722FFF791FF0722CC
:100454000321DAE7244B98420DD1204A2348136C38
:1004640043F4802313640A210722FFF781FF072244
:1004740005211F48CAE71F4B98420CD1174A184858
:10048400136C43F40023136400210822FFF770FF68
:1004940008220121B9E7184B98420DD10F4A14489C
:1004A400136C43F4801313640C210822FFF760FFDC
:1004B400124808220221A9E7114B9842B9D1074AF0
:1004C4000B48536C43F02003536406210822FFF7C2
:1004D4004FFF08220721CCE70010014000380240FA
:1004E4000000024000440040004800400004024074
:1004F40000080240004C004000500040000C024044
:100504000014014003681B06FCD54160704708B520
:100514004A1E12F8011F01B908BDFFF7F3FFF8E7FF
:1005240003689B06FCD54068C0B270470068C0F3FE
:100534004010704770B5224C224D234E4FF4E132E7
:1005440029462046FFF74EFF20462049FFF7DFFFEC
:100554004FF4E13231461E48FFF744FF20461D495F
:10056400FFF7D5FF4FF4E13229461B48FFF73AFF66
:1005740020461A49FFF7CBFF4FF4E13229461848C9
:10058400FFF730FF20461749FFF7C1FF4FF4E13270
:1005940029461548FFF726FF20461449FFF7B7FF01
:1005A400314613484FF4E132FFF71CFF204611494E
:1005B400FFF7ADFF20461049BDE87040FFF7A7BF25
:1005C4000044004040A5AE02804A5D05C80700080B
:1005D40000100140F1070008004800401A08000814
:1005E400004C004043080008005000406A0800081E
:1005F4000014014092080008BA080008424A136B2C
:1006040043F001032DE9F0411363404B404D1A6858
:10061400404C414E22F440621A601A6842F48062EF
:100624001A603E4FDFF828812046FFF77FFFB8B1FC
:100634002046FFF775FF354A5369313883F02003AC
:10064400536105285DD8DFE800F0035C444A505646
:1006540033494046FFF75BFF32492046FFF757FF17
:100664004046FFF763FF30B14046FFF759FF0146AC
:100674002046FFF747FF2C48FFF758FF30B12A48C0
:10068400FFF74EFF01462046FFF73CFF3046FFF7D9
:100694004DFF30B13046FFF743FF01462046FFF7D8
:1006A40031FF3846FFF742FF30B13846FFF738FFD5
:1006B40001462046FFF726FF2846FFF737FF0028AC
:1006C400B2D02846FFF72CFF01462046FFF71AFF59
:1006D400A7E716491448FFF71AFF1549BDE715495E
:1006E4003046FFF714FF1449B7E714493846FFF7BB
:1006F4000EFF1349B1E713492846FFF708FF1249D3
:10070400ABE71249A9E700BF0038024000000240ED
:100714000014014000440040004C004000500040E0
:10072400F808000815090008004800402B090008D3
:10073400480900085E0900087A0900088F090008C2
:10074400AB090008C0090008DD090008F309000826
:100754000010014070B50D4D0D4C641BA410002613
:10076400A64209D10B4D0C4C00F018F8641BA410E0
:100774000026A64205D170BD55F8043B98470136C2
:10078400EEE755F8043B98470136F2E7140A0008EF
:10079400140A0008140A0008180A0008F8B500BF73
:1007A400F8BC08BC9E467047F8B500BFF8BC08BC4E
:0407B4009E467047A6
:1007B8000000000000000000010203040607080909
:1007C8000D0A5B424F4F545D205553415254323A03
:1007D80020555342207669727475616C20434F4DE1
:1007E8002072656164790D0A005B424F4F545D20A9
:1007F8005553415254313A2052656164792028504A
:1008080041392D54582C20504131302D5258290D42
:100818000A005B424F4F545D205553415254333ABE
:100828002052656164792028504231302D54582C6B
:10083800205043352D5258290D0A005B424F4F5422
:100848005D2055415254343A20526561647920281C
:100858005041302D54582C205041312D5258290DDB
:100868000A005B424F4F545D2055415254353A209F
:1008780052656164792028504331322D54582C2018
:100888005044322D5258290D0A005B424F4F545D97
:10089800205553415254363A2052656164792028D4
:1008A8005043362D54582C205043372D5258290D7B
:1008B8000A000D0A5B494E464F5D205541525420AF
:1008C800746573742072656164792E20547970653B
:1008D80020312C20332C20342C20352C2036207429
:1008E8006F2070696E672055415254732E0D0A00AF
:1008F80050696E672066726F6D20555341525432AD
:10090800202D3E205553415254310D0A005B545856
:100918005D2053656E7420746F20555341525431D5
:100928000D0A0050696E672066726F6D205553413D
:10093800525432202D3E205553415254330D0A0053
:100948005B54585D2053656E7420746F2055534175
:100958005254330D0A0050696E672066726F6D201D
:10096800555341525432202D3E2055415254340D96
:100978000A005B54585D2053656E7420746F2055CF
:10098800415254340D0A0050696E672066726F6DCB
:1009980020555341525432202D3E20554152543552
:1009A8000D0A005B54585D2053656E7420746F20E7
:1009B80055415254350D0A0050696E672066726FB2
:1009C8006D20555341525432202D3E2055534152EB
:1009D80054360D0A005B54585D2053656E742074BC
:1009E8006F205553415254360D0A005B48454C5010
:1009F8005D20507265737320312D3620746F20741A
:0C0A08006573742055415254730D0A00B0
:040A1400E9010008EC
:040A1800C50100080C
:040A1C000024F400BE
:0400000508000205E8
:00000001FF
