:020000040800F2
:100000000000022005020008550200085502000801
:1000100055020008550200085502000800000000C3
:100020000000000000000000000000005502000871
:1000300055020008000000005502000855020008A3
:100040005502000855020008550200085502000834
:100050005502000855020008550200085502000824
:100060005502000855020008550200085502000814
:100070005502000855020008550200085502000804
:1000800055020008550200085502000855020008F4
:1000900055020008550200085502000855020008E4
:1000A00055020008550200085502000855020008D4
:1000B00055020008550200085502000855020008C4
:1000C00055020008550200085502000855020008B4
:1000D00055020008550200085502000855020008A4
:1000E0005502000855020008550200085502000894
:1000F0005502000855020008550200085502000884
:100100005502000855020008550200085502000873
:100110005502000855020008550200085502000863
:100120005502000855020008550200085502000853
:100130005502000800000000000000005502000801
:100140005502000855020008550200085502000833
:100150005502000855020008550200085502000823
:100160005502000855020008550200085502000813
:100170005502000855020008550200080000000062
:100180000000000055020008000000000000000010
:1001900055020008000000000000000055020008A1
:1001A00000000000000000000000000055020008F0
:1001B00055020008550200085502000855020008C3
:0401C00055020008DC
:1001C40010B5054C237833B9044B13B10448AFF38D
:1001D40000800123237010BD2C04002000000000C7
:1001E400F803000808B5034B1BB103490348AFF3F8
:1001F400008008BD0000000030040020F80300085F
:10020400DFF834D00D480E490E4A002302E0D458DA
:10021400C4500433C4188C42F9D30B4A0B4C00234A
:1002240001E013600432A242FBD300F013F800F0A3
:100234004DF800F019F8704700000220000000207B
:100244002C040020200400082C0400204C0400206E
:10025400FEE70000034AD2F8883043F47003C2F882
:100264008830704700ED00E00B4A0C4C08B5136B66
:1002740043F001031363236843F48063236023681A
:1002840023F400632360636983F0200363614FF404
:100294007A7000F005F8F6E70038024000000240EA
:1002A4004FF0E02243F67F635361052100239361FD
:1002B4001161834204DB4FF0E02300221A6170478E
:1002C4001169C903FCD50133F3E7000070B50D4E85
:1002D4000D4D761BB61006D0002455F8043B0134AE
:1002E4009847A642F9D1094E094D761B00F082F8D1
:1002F400B61006D0002455F8043B01349847A642B2
:10030400F9D170BD14040008140400081C0400088A
:1003140014040008024B13B1024800F005B87047FA
:100324000000000039030008002301461A4618465D
:1003340000F01AB838B5084B084D5B1B9C1007D069
:10034400043B1D44013C55F804399847002CF9D16D
:10035400BDE8384000F054B8200400081C0400082C
:10036400704700BF704700BF2DE9F047DFF880A059
:100374000646DAF8000098460F469146FFF7F0FF6C
:100384001A4B1B68D3F8484124B365681F2D26DC3B
:100394005EB96B1C0235DAF80000636044F825701E
:1003A400FFF7E0FF0020BDE8F08704EB850101239F
:1003B400C1F88890D4F88821AB401A43022EC4F8BF
:1003C4008821C1F80881E4D1D4F88C211343C4F8FE
:1003D4008C31DEE703F5A674C3F84841D5E7DAF8B3
:1003E4000000FFF7BFFF4FF0FF30DCE71004000808
:1003F40028040020F8B500BFF8BC08BC9E4670472E
:0C040400F8B500BFF8BC08BC9E4670476D
:0404100000000020C8
:0804140019030008E9010008CA
:04041C00C50100080E
:1004200000000000EC02002054030020BC03002068
:1004300000000000000000000000000000000000BC
:1004400000000000000000000000000000000000AC
:10045000000000000000000000000000000000009C
:10046000000000000000000000000000000000008C
:10047000000000000000000000000000000000007C
:10048000000000000000000000000000000000006C
:10049000000000000000000000000000000000005C
:1004A000000000000000000000000000000000004C
:1004B000000000000000000000000000000000003C
:1004C000000000000000000001000000000000002B
:1004D0000E33CDAB34126DE6ECDE05000B000000F0
:1004E000000000000000000000000000000000000C
:1004F00000000000000000000000000000000000FC
:1005000000000000000000000000000000000000EB
:1005100000000000000000000000000000000000DB
:0C08400000000000000000004804002040
:0400000508000205E8
:00000001FF
