:020000040800F2
:1000000000000220150200086502000865020008D1
:100010006502000865020008650200080000000093
:100020000000000000000000000000006502000861
:100030006502000800000000650200086502000873
:1000400065020008650200086502000865020008F4
:1000500065020008650200086502000865020008E4
:1000600065020008650200086502000865020008D4
:1000700065020008650200086502000865020008C4
:1000800065020008650200086502000865020008B4
:1000900065020008650200086502000865020008A4
:1000A0006502000865020008650200086502000894
:1000B0006502000865020008650200086502000884
:1000C0006502000865020008650200086502000874
:1000D0006502000865020008650200086502000864
:1000E0006502000865020008650200086502000854
:1000F0006502000865020008650200086502000844
:100100006502000865020008650200086502000833
:100110006502000865020008650200086502000823
:100120006502000865020008650200086502000813
:1001300065020008000000000000000065020008E1
:1001400065020008650200086502000865020008F3
:1001500065020008650200086502000865020008E3
:1001600065020008650200086502000865020008D3
:100170006502000865020008650200080000000032
:100180000000000065020008000000000000000000
:100190006502000800000000000000006502000881
:1001A00000000000000000000000000065020008E0
:1001B0006502000865020008650200086502000883
:0401C00065020008CC
:1001C40010B5054C237833B9044B13B10448AFF38D
:1001D40000800123237010BD0800002000000000EF
:1001E400CC0D000808B5034B1BB103490348AFF31A
:1001F400008008BD000000000C000020CC0D0008A9
:10020400034613F8012B002AFBD1181A0138704752
:10021400DFF834D00D480E490E4A002302E0D458CA
:10022400C4500433C4188C42F9D30B4A0B4C00233A
:1002340001E013600432A242FBD300F055F800F051
:1002440097FD00F095F870470000022000000020A0
:1002540008000020E8100008080000202400002006
:10026400FEE700001C4B1A6842F480321A601A68D8
:100274009103FCD51A6C194942F080521A640A6839
:1002840042F440420A60164A40F205711160154A70
:100294005A601A6842F080721A600F4B1A68920111
:1002A400FCD59A689A609A6842F4A0529A609A6857
:1002B40042F400429A609A6822F003029A609A68B3
:1002C40042F002029A60044A936803F00C03082B7C
:1002D400FAD100F013B800BF0038024000700040AB
:1002E400003C0240085A4007034AD2F8883043F4DD
:1002F4007003C2F88830704700ED00E0174A1849CF
:10030400936803F00C03042B0DD0082B0DD0154B70
:100314000B60124B144A9B68C3F30313D25C0B6843
:10032400D3400B607047114BF2E75368506813F4E5
:10033400800F00F03F00536814BF0C4A094AB2FB17
:10034400F0F0064A5268C2F30142C3F38813013243
:1003540043435200B3FBF2F3DAE700BF0038024034
:10036400000000200024F400040E000840787D0101
:1003740008B5FFF777FF1C4C1C484FF4E13100F03F
:1003840013FA1B491B4800F0D9F91B4A1749206886
:1003940000F05EF81949174800F0D0F92368184AAC
:1003A400934215D11749134800F0C8F9164911486A
:1003B40000F0C4F921680F4800F0CAF913490D4848
:1003C40000F0BCF901222068114600F02BFAFEE788
:1003D4000F4A934201D10F49E5E70F4A93420CBFFC
:1003E4000E490F49DFE700BF0400002040A5AE021C
:1003F400140E000800440040A0860100430E0008CB
:10040400005400404E0E0008650E00086D0E0008F2
:1004140000580040530E0008005C0040580E0008CD
:100424005D0E00084FF0E022084B536105210023C4
:1004340093611161834204DB4FF0E02300221A61CF
:1004440070471169C903FCD50133F3E71FBF0200EC
:100454001FB58C4B98424DD103F5F2331C6B44F01D
:1004640002041C631C6C44F400141C641B6B019395
:10047400019B854B1C6824F470441C601C6844F484
:1004840020441C605C6844F0C0045C609C6844F4D4
:1004940070449C60DC6824F47044DC60DC6844F4E0
:1004A400A044DC601C6A24F07F441C621C6A44F093
:1004B40088441C62036843F40043036000230393ED
:1004C400039BC72B40F3DB80036823F400430360E2
:1004D400002303606D4BB1FBF3F34360013352001F
:1004E400B1FBF2F1C1610362036843F001030360ED
:1004F40004B010BD664B98425ED103F5F0331C6B1B
:1005040044F006041C631C6C44F480041C641B6BE0
:100514000193019B5C4B1C6824F440141C601C6810
:1005240044F400141C605C6844F480645C609C685F
:1005340044F440149C60DC6824F44014DC60DC68FF
:1005440044F48014DC605C6A24F470645C625C6A69
:1005540044F480645C62D3F8004424F04074C3F82B
:100564000044D3F8004444F00074C3F80044D3F8C2
:10057400044444F48054C3F80444D3F8084444F0D5
:100584004074C3F80844D3F80C4424F04074C3F80E
:100594000C44D3F80C4444F08074C3F80C44D3F8EE
:1005A400244424F47024C3F82444D3F8244444F4A5
:1005B4008024C3F824447DE7364B98427FF47AAF15
:1005C40003F5EE331C6B44F005041C631C6C44F40B
:1005D40000041C641B6B0293029B2F4B1C6824F4C5
:1005E40040341C601C6844F400341C605C6844F4AF
:1005F40080745C609C6844F440349C60DC6824F43F
:100604004034DC60DC6844F48034DC605C6A24F0F0
:100614000F045C625C6A44F004045C62D3F8004832
:1006240024F44024C3F80048D3F8004844F40024D8
:10063400C3F80048D3F8044844F40074C3F80448E9
:10064400D3F8084844F44024C3F80848D3F80C48C5
:1006540024F44024C3F80C48D3F80C4844F4802410
:10066400C3F80C48D3F8244824F0F004C3F8244811
:10067400D3F8244844F04004C3F824481AE7039B01
:1006840001331CE7005400400004024040420F00C4
:1006940000580040005C00400000024010B51A4BB6
:1006A4008469A4071FD5013BFAD11849184800F002
:1006B40045F86FF0010015E043695B050DD543690A
:1006C40023F480634361036843F4007303604FF0D1
:1006D400FF3007E042EA4102026143699A07EBD521
:1006E4008369002010BD036843F480730360064BE4
:1006F4004469E407EED4013BFAD10649044800F00A
:100704001DF86FF00200EDE7A0860100900E0008CE
:10071400004400407C0E000843691A06FCD50161C0
:1007240043695B07FCD57047036843F400730360B7
:10073400704703681B06FCD54160704708B54A1E24
:1007440012F8011F01B908BDFFF7F3FFF8E7000035
:10075400F0B5144B87B004460E4601AA03F1100706
:1007640018685968154603C50833BB422A46F7D1B1
:100774001B782B7030212046FFF7DBFF7821FFF731
:10078400D8FF1C2226FA02F303F00F0318336B443C
:10079400204613F8141C043AFFF7CBFF131DF1D1C4
:1007A40007B0F0BDA30E00081D4B1A6B42F0010206
:1007B4001A631A6C42F400321A64A3F560531A687F
:1007C40022F0F0021A601A6842F0A0021A601A6A53
:1007D40022F47F421A621A6A42F4EE421A629A685A
:1007E40042F0F0029A605A6822F00C025A60DA6809
:1007F40022F0F002DA60A3F5DE3300225A611A61B6
:10080400DA6000EB5102B2FBF1F29A60DA6842F46A
:10081400005242F00C02DA601A685B68704700BF4D
:10082400003802402DE9F041444B8EB002AD9046B1
:1008340004460E4603F108022F4618685968AC4670
:10084400ACE80300083393426546F6D118681B7977
:10085400CCF800001C228CF8043000210DEB0200BF
:10086400069100F0A9FA56B135493648FFF766FFFC
:10087400204600F07DF834493248FFF75FFFB8F1B5
:10088400000F3AD031492F48FFF758FF204600F0B7
:10089400D1F92F492B48FFF751FF3846FFF7B0FC39
:1008A4003A4683B20021204600F0E0F92949254860
:1008B400FFF744FF28492348FFF740FF3846FFF776
:1008C4009FFC06AA83B20021204600F0FDF93846B9
:1008D400FFF796FC00F138030DEB0300002300F84A
:1008E400203C1E491748FFF729FF164806A9FFF7C1
:1008F40025FF1B491348FFF721FFBEB119491148D1
:10090400194D104EFFF71AFF6946204600F04CF8C7
:1009140038B1684600F0D6F84FF47A70FFF782FDDC
:10092400F2E729463046FFF709FFF5E70F49054886
:10093400FFF704FF0EB0BDE8F08100BFB50F00085B
:10094400B40E000800440040D60E0008E70E00086C
:100954000D0F0008290F0008390F0008500F000878
:10096400E30E00085B0F0008760F0008930F0008E1
:1009740010B5002268210446FFF790FE40B90748ED
:100984000749FFF7DBFE2046BDE81040FFF7CCBE69
:10099400BDE8104003490148FFF7D0BE00440040C1
:1009A400DE0F0008F80F000873B500220E46682118
:1009B4000446FFF773FE30B13F494048FFF7BEFEDF
:1009C400002002B070BD01462046FFF7A5FE204678
:1009D400FFF7AAFE012268212046FFF75FFE08B157
:1009E4003749EAE7236843F480632360A3696B46CD
:1009F40062695206FCD50130226903F8012B0628EE
:100A0400F6D1236823F480632360236843F40073DE
:100A1400236063695B06FCD52369226842F4806223
:100A240022609DF80020C2F3021101EB810102F063
:100A34000F0202EB410232709DF80120110901EB13
:100A4400810102F00F0202EB410272709DF8022054
:100A5400C2F3011101EB810102F00F0202EB41022A
:100A6400B2709DF80320110901EB810102F00F021D
:100A740002EB4102F2709DF80420110901EB81019F
:100A840002F00F0202EB410232719DF80520C2F31D
:100A9400001101EB810102F00F0202EB41027271BD
:100AA400C3F3031202EB820203F00F0303EB4203CE
:100AB400B371012085E700BF111000080044004015
:100AC4003310000870B5534E05460FCE88B06C46FF
:100AD4000FC496E80F0084E80F004F494F480A24DA
:100AE400FFF72CFEA978B1FBF4F130314B48C9B2C1
:100AF400FFF71FFEA978B1FBF4F304FB13113031A7
:100B04004648C9B2FFF715FE44483A21FFF711FEE3
:100B14006978B1FBF4F130314048C9B2FFF709FEFE
:100B24006978B1FBF4F304FB131130313B48C9B2CB
:100B3400FFF7FFFD39483A21FFF7FBFD2978B1FBA8
:100B4400F4F130313548C9B2FFF7F3FD2978B1FB30
:100B5400F4F304FB131130313048C9B2FFF7E9FD57
:100B64002F492E48FFF7EAFD2979B1FBF4F1303122
:100B74002A48C9B2FFF7DDFD2979B1FBF4F304FB80
:100B8400131130312548C9B2FFF7D3FD23482F2173
:100B9400FFF7CFFD6979B1FBF4F130311F48C9B2D9
:100BA400FFF7C7FD6979B1FBF4F304FB131130318E
:100BB4001A48C9B2FFF7BDFD1A491848FFF7BEFD30
:100BC400A979B1FBF4F130311448C9B2FFF7B1FD92
:100BD400A979B1FBF4F304FB131130310F48C9B206
:100BE400FFF7A7FD10490D48FFF7A8FDEB780B4868
:100BF4005A1E062A9BBF08AA02EB83030B4953F82B
:100C0400201CFFF79BFD0A49044808B0BDE870406A
:100C1400FFF794BDE40D00085410000800440040A0
:100C24005B100008641000086810000870100008C9
:100C34000E10000810B5002268210446FFF72EFDAF
:100C440040B907480749FFF779FD2046BDE8104041
:100C5400FFF76ABDBDE8104003490148FFF76EBDC8
:100C640000440040731000088E100008F8B50E46CA
:100C740014465721002205461F46FFF70FFD28B1F1
:100C8400BDE8F8400E490F48FFF758BD310A284621
:100C9400FFF742FDF1B22846FFF73EFD202F94BF37
:100CA400E61904F12006B44204D12846BDE8F84010
:100CB400FFF73ABD14F8011B2846FFF72DFDF2E7B4
:100CC400A810000800440040F8B50F461546572107
:100CD400002204461E46FFF7E1FC28B1BDE8F840B7
:100CE40021492248FFF72ABD390A2046FFF714FD9F
:100CF400F9B22046FFF710FD236843F480732360A4
:100D04006369DB07FCD5AF23236163699F07FCD5C7
:100D1400236843F480632360A369B11E00239AB25D
:100D24008A4219DB63695A06FCD5236823F480637D
:100D340023603544236905F8023C63695B06FCD5EE
:100D4400236843F400732360236905F8013C236896
:100D540043F480632360F8BD60694006FCD52069D4
:100D6400A8540133DBE700BFC3100008004400406F
:100D740070B50D4D0D4C641BA4100026A64209D17C
:100D84000B4D0C4C00F020F8641BA4100026A64266
:100D940005D170BD55F8043B98470136EEE755F888
:100DA400043B98470136F2E7E0100008E010000821
:100DB400E0100008E410000802440346934200D106
:100DC400704703F8011BF9E7F8B500BFF8BC08BC8D
:100DD4009E467047F8B500BFF8BC08BC9E467047F5
:100DE400E60E0008C20F0008C60F0008CA0F00086C
:100DF400CE0F0008D20F0008D60F0008DA0F000843
:100E040000000000000000000102030406070809B6
:100E14000D0A3D3D3D204453333233312052544377
:100E24002026204154323443333220436F6D6269AB
:100E34006E65642054657374203D3D3D0D0A000DBC
:100E44000A436F6E6669673A2000493243310049AC
:100E5400324332004932433300556E6B6E6F776E06
:100E640000205B426173653D005D202D3E204D6195
:100E7400737465720D0A0A00535441525420626916
:100E8400742074696D656F75740D0A0049324320CE
:100E9400425553592074696D656F75740D0A00309D
:100EA40031323334353637383941424344454600CC
:100EB4003D3D3D20496E697469616C697A696E676C
:100EC4002044533332333120525443203D3D3D0DB1
:100ED4000A004453333233312052656164792E0D54
:100EE4000A0A003D3D3D20496E697469616C697A66
:100EF400696E6720415432344333322045455052A1
:100F04004F4D203D3D3D0D0A0057726974696E676F
:100F1400206461746120746F20454550524F4D2EFA
:100F24002E2E0D0A00446174612077726974746511
:100F34006E2E0D0A0052656164696E6720626163FA
:100F44006B20646174612E2E2E0D0A00526561645B
:100F54006261636B3A20003D3D3D205265616469E6
:100F64006E67205254432054696D65203D3D3D0D0C
:100F74000A00E29AA0EFB88F202044533332333171
:100F84002072656164206661696C65640D0A0052B3
:100F940054432064697361626C656420E280942028
:100FA4007465737420636F6D706C6574652E0D0ABF
:100FB4000048656C6C6F20576F726C642100537528
:100FC4006E004D6F6E00547565005765640054687B
:100FD40075004672690053617400445333323331EF
:100FE40020646574656374656420617420307836A8
:100FF400380D0A00445333323331206E6F7420723B
:101004006573706F6E64696E67210D0A0044533313
:1010140032333120726561643A20777269746520D5
:101024007068617365206661696C65640D0A0044CB
:10103400533332333120726561643A2072656164DE
:10104400207068617365206661696C65640D0A00CF
:1010540054696D653A20002020446174653A20008B
:101064002F3230002020444F573A20003F3F0041A8
:101074005432344333322064657465637465642088
:10108400617420307835370D0A00415432344333CB
:1010940032206E6F7420726573706F6E64696E6750
:1010A400210D0A00E29D8C20454550524F4D204EA3
:1010B40041434B206F6E2077726974650D0A00E21C
:1010C4009D8C20454550524F4D204E41434B206F3F
:0C10D4006E20616464726573730D0A0085
:0410E000E90100081A
:0410E400C50100083A
:0810E8000024F4000054004054
:0400000508000215D8
:00000001FF
