:020000040800F2
:1000000000000220150200086502000865020008D1
:100010006502000865020008650200080000000093
:100020000000000000000000000000006502000861
:100030006502000800000000650200086502000873
:1000400065020008650200086502000865020008F4
:1000500065020008650200086502000865020008E4
:1000600065020008650200086502000865020008D4
:1000700065020008650200086502000865020008C4
:1000800065020008650200086502000865020008B4
:1000900065020008650200086502000865020008A4
:1000A0006502000865020008650200086502000894
:1000B0006502000865020008650200086502000884
:1000C0006502000865020008650200086502000874
:1000D0006502000865020008650200086502000864
:1000E0006502000865020008650200086502000854
:1000F0006502000865020008650200086502000844
:100100006502000865020008650200086502000833
:100110006502000865020008650200086502000823
:100120006502000865020008650200086502000813
:1001300065020008000000000000000065020008E1
:1001400065020008650200086502000865020008F3
:1001500065020008650200086502000865020008E3
:1001600065020008650200086502000865020008D3
:100170006502000865020008650200080000000032
:100180000000000065020008000000000000000000
:100190006502000800000000000000006502000881
:1001A00000000000000000000000000065020008E0
:1001B0006502000865020008650200086502000883
:0401C00065020008CC
:1001C40010B5054C237833B9044B13B10448AFF38D
:1001D40000800123237010BD0800002000000000EF
:1001E400B815000808B5034B1BB103490348AFF326
:1001F400008008BD000000000C000020B8150008B5
:10020400034613F8012B002AFBD1181A0138704752
:10021400DFF834D00D480E490E4A002302E0D458CA
:10022400C4500433C4188C42F9D30B4A0B4C00233A
:1002340001E013600432A242FBD300F055F801F050
:100244008DF900F095F870470000022000000020AE
:1002540008000020281B00080800002034000020AB
:10026400FEE700001C4B1A6842F480321A601A68D8
:100274009103FCD51A6C194942F080521A640A6839
:1002840042F440420A60164A40F205711160154A70
:100294005A601A6842F080721A600F4B1A68920111
:1002A400FCD59A689A609A6842F4A0529A609A6857
:1002B40042F400429A609A6822F003029A609A68B3
:1002C40042F002029A60044A936803F00C03082B7C
:1002D400FAD100F013B800BF0038024000700040AB
:1002E400003C0240085A4007034AD2F8883043F4DD
:1002F4007003C2F88830704700ED00E0174A1849CF
:10030400936803F00C03042B0DD0082B0DD0154B70
:100314000B60124B144A9B68C3F30313D25C0B6843
:10032400D3400B607047114BF2E75368506813F4E5
:10033400800F00F03F00536814BF0C4A094AB2FB17
:10034400F0F0064A5268C2F30142C3F38813013243
:1003540043435200B3FBF2F3DAE700BF0038024034
:10036400000000200024F400F015000840787D010E
:1003740008B5FFF777FF1E4C1E491F484FF4E132C2
:1003840000F0B6FB1D491C4800F047FC1C4A194903
:10039400206800F0B1F8032000F01AFD194916484E
:1003A40000F03BFC2368184A934215D117491248C0
:1003B40000F033FC1649104800F02FFC21680E4869
:1003C40000F034FC13490C4800F027FC002220689C
:1003D400114600F057FCFEE70F4A934201D10F4942
:1003E400E5E70F4A93420CBF0E490F49DFE700BF10
:1003F4000400002040A5AE0200440040001600089E
:10040400A08601002F160008005400403A16000888
:100414005116000859160008005800403F160008FD
:10042400005C004044160008491600084FF0E02222
:10043400084B53610521002393611161834204DB5E
:100444004FF0E02300221A6170471169C903FCD5FB
:100454000133F3E71FBF0200254A136B43F0020385
:100464001363244B1A6822F470421A601A6842F427
:10047400A0421A605A6842F0C0025A605A6942F0B7
:10048400C0025A6184B009220020596921F0400158
:10049400596101900199B1F5967F1DDB596941F0CD
:1004A4004001596102900299B1F5967F18DB013A37
:1004B400EBD1596921F0800159610392039AB2F595
:1004C400967F11DB5A6942F0C0025A611A6822F41D
:1004D40070421A6004B07047019901310191D9E763
:1004E400029901310291DEE7039A0132E5E700BF88
:1004F40000380240000402401FB58C4B98424DD195
:1005040003F5F2331C6B44F002041C631C6C44F4CA
:1005140000141C641B6B0193019B854B1C6824F421
:1005240070441C601C6844F420441C605C6844F003
:10053400C0045C609C6844F470449C60DC6824F4EF
:100544007044DC60DC6844F4A044DC601C6A24F081
:100554007F441C621C6A44F088441C62036843F4B0
:100564000043036000230393039BC72B40F3DB800A
:10057400036823F400430360002303606D4BB1FB65
:10058400F3F3436001335200B1FBF2F1C161036242
:10059400036843F00103036004B010BD664B984246
:1005A4005ED103F5F0331C6B44F006041C631C6C31
:1005B40044F480041C641B6B0193019B5C4B1C681A
:1005C40024F440141C601C6844F400141C605C682F
:1005D40044F480645C609C6844F440149C60DC686F
:1005E40024F44014DC60DC6844F48014DC605C6A4D
:1005F40024F470645C625C6A44F480645C62D3F8E2
:10060400004424F04074C3F80044D3F8004444F098
:100614000074C3F80044D3F8044444F48054C3F889
:100624000444D3F8084444F04074C3F80844D3F8AD
:100634000C4424F04074C3F80C44D3F80C4444F044
:100644008074C3F80C44D3F8244424F47024C3F80D
:100654002444D3F8244444F48024C3F824447DE798
:10066400364B98427FF47AAF03F5EE331C6B44F0BB
:1006740005041C631C6C44F400041C641B6B02938F
:10068400029B2F4B1C6824F440341C601C6844F407
:1006940000341C605C6844F480745C609C6844F4BE
:1006A40040349C60DC6824F44034DC60DC6844F44E
:1006B4008034DC605C6A24F00F045C625C6A44F0A1
:1006C40004045C62D3F8004824F44024C3F80048CE
:1006D400D3F8004844F40024C3F80048D3F804488D
:1006E40044F40074C3F80448D3F8084844F440249C
:1006F400C3F80848D3F80C4824F44024C3F80C4841
:10070400D3F80C4844F48024C3F80C48D3F82448A4
:1007140024F0F004C3F82448D3F8244844F04004F7
:10072400C3F824481AE7039B01331CE70054004034
:100734000004024040420F0000580040005C0040AA
:100744000000024010B51A4B8469A4071FD5013B71
:10075400FAD11849184800F060FA6FF0010015E06A
:1007640043695B050DD5436923F4806343610368E2
:1007740043F4007303604FF0FF3007E042EA4102A4
:10078400026143699A07EBD58369002010BD0368B1
:1007940043F480730360064B4469E407EED4013BE1
:1007A400FAD10649044800F038FA6FF00200EDE788
:1007B400A08601007C16000800440040681600086A
:1007C40043691A06FCD5016143695B07FCD5704790
:1007D400036843F4007303607047000070B5A14CD4
:1007E400A04286B076D104F5F234256B45F00205BB
:1007F4002563256C45F400152564246B0194019C44
:10080400994C256825F470452560256845F42045F4
:100814002560656845F0C0056560A56845F47045C8
:10082400A560E56825F47045E560E56845F4A045F4
:10083400E560256A25F07F452562256A45F08845EF
:100844002562046844F40044046000240294029C79
:10085400C72C3CDD834C256825F400452560834D79
:10086400B1FBF5F5656001355E00B1FBF6F6E661B6
:100874002562550045F48045A560256845F48065EA
:1008840045F001052560046844F400440460002434
:100894000594059CC72C40F3E1800468520024F4BD
:1008A4000044046042F48042704CB1FBF4F44460B0
:1008B40001345B00B1FBF3F1C1610462826003683F
:1008C40043F4806343F00103036006B070BD029CEF
:1008D4000134BBE7664CA0425ED104F5F034256BCD
:1008E40045F006052563256C45F480052564246BD5
:1008F4000394039C5C4C256825F440152560256809
:1009040045F400152560656845F480656560A56853
:1009140045F44015A560E56825F44015E560E568F3
:1009240045F48015E560656A25F470656562656A5D
:1009340045F480656562D4F8005425F04075C4F828
:100944000054D4F8005445F00075C4F80054D4F8A9
:10095400045445F48055C4F80454D4F8085445F0BC
:100964004075C4F80854D4F80C5425F04075C4F804
:100974000C54D4F80C5445F08075C4F80C54D4F8D5
:10098400245425F47025C4F82454D4F8245445F48C
:100994008025C4F8245476E7364CA04295D104F55A
:1009A400EE34256B45F005052563256C45F40005FB
:1009B4002564246B0494049C2F4C256825F440354D
:1009C4002560256845F400352560656845F4807523
:1009D4006560A56845F44035A560E56825F44035B3
:1009E400E560E56845F48035E560656A25F00F0546
:1009F4006562656A45F004056562D4F8005825F41B
:100A04004025C4F80058D4F8005845F40025C4F82B
:100A14000058D4F8045845F40075C4F80458D4F8C0
:100A2400085845F44025C4F80858D4F80C5825F45F
:100A34004025C4F80C58D4F80C5845F48025C4F863
:100A44000C58D4F8245825F0F005C4F82458D4F8E8
:100A5400245845F04005C4F8245814E7059C013493
:100A640016E700BF005400400004024040420F005B
:100A740000580040005C004000000240F0B500F166
:100A84003F431A4C03F57E03266B01259B0A05FAA6
:100A940003F333432363066801FA05F70323BB40DA
:100AA40026EA0306066006680224BC403443046058
:100AB40084681C43846044688D4024EA05054560CD
:100AC400C46824EA0303C360CB0800EB830001F08D
:100AD4000701036A89000F248C4023EA040303629C
:100AE400036A8A401A430262F0BD00BF0038024024
:100AF4003C4B984270B504460D46164620D13A4AFE
:100B04003A48536C43F01003536409210722FFF75A
:100B1400B5FF07220A213548FFF7B0FF00236361C0
:100B240005EB56012361B1FBF6F1E360A160E368D4
:100B340043F4005343F00C03E3602368636870BD1F
:100B44002B4B98420CD1284A2848136C43F40033A9
:100B5400136402210722FFF791FF07220321DAE73A
:100B6400244B98420DD1204A2348136C43F480232C
:100B740013640A210722FFF781FF072205211F487A
:100B8400CAE71F4B98420CD1174A1848136C43F418
:100B94000023136400210822FFF770FF08220121BB
:100BA400B9E7184B98420DD10F4A1448136C43F41B
:100BB400801313640C210822FFF760FF12480822F7
:100BC4000221A9E7114B9842B9D1074A0B48536C4B
:100BD40043F02003536406210822FFF74FFF082245
:100BE4000721CCE700100140003802400000024019
:100BF4000044004000480040000402400008024055
:100C0400004C004000500040000C02400014014021
:100C140003681B06FCD54160704708B54A1E12F8EC
:100C2400011F01B908BDFFF7F3FFF8E7F0B5144B56
:100C340087B004460E4601AA03F1100718685968E4
:100C4400154603C50833BB422A46F7D11B782B70DF
:100C540030212046FFF7DCFF7821FFF7D9FF1C2263
:100C640026FA02F303F00F0318336B44204613F8FB
:100C7400141C043AFFF7CCFF131DF1D107B0F0BDEB
:100C84008F1600082DE9F041444B8EB002AD90461A
:100C940004460E4603F108022F4618685968AC460C
:100CA400ACE80300083393426546F6D118681B7913
:100CB400CCF800001C228CF8043000210DEB02005B
:100CC400069100F06FFC56B135493648FFF7A5FF91
:100CD400204600F043FA34493248FFF79EFFB8F14A
:100CE400000F3AD031492F48FFF797FF204600F014
:100CF40097FB2F492B48FFF790FF3846FFF780FA00
:100D04003A4683B20021204600F0A6FB2949254833
:100D1400FFF783FF28492348FFF77FFF3846FFF793
:100D24006FFA06AA83B20021204600F0C3FB3846BE
:100D3400FFF766FA00F138030DEB0300002300F817
:100D4400203C1E491748FFF768FF164806A9FFF71D
:100D540064FF1B491348FFF760FFBEB119491148EE
:100D6400194D104EFFF759FF6946204600F012FA5C
:100D740038B1684600F09CFA4FF47A70FFF756FBDE
:100D8400F2E729463046FFF748FFF5E70F490548E3
:100D9400FFF743FF0EB0BDE8F08100BF97170008CE
:100DA400A016000800440040C2160008D31600082C
:100DB400F916000815170008251700083C17000845
:100DC400CF160008471700086217000877170008B5
:100DD4002DE9F04FA04987B00446A048FFF71DFF56
:100DE400FFF73AFB022C32D0032C3CD0012C46D125
:100DF4009B499A489B4E9C4F9C4DFFF70EFF4FF02A
:100E04003C084FF03B099A4B9A494A463846FFF74B
:100E1400E5FC974B974942463046FFF7DFFC944A7E
:100E240094492846FFF768FB0023039344F61F62A6
:100E3400039B93422ADD90498848FFF7EEFE002287
:100E440049462846FFF77EFC20B38C4918E08C49BC
:100E54008248844E854F844DFFF7DFFE4FF03C08F7
:100E64004FF03A09CFE787497C487F4E7F4F7D4D4D
:100E7400FFF7D3FE4FF03B084FF03A09C3E782492E
:100E8400764807B0BDE8F04FFFF7C7BE039B0133B8
:100E94000393CDE77B69DFF828B2BB697B4B0093F2
:100EA4009A465C4614F8011B2846FFF789FC784BE8
:100EB4007A695006FCD53A690AF8012BA342F1D1AC
:100EC4002846FFF785FC65487249DFF8C0A1FFF7A3
:100ED400A4FE624806241AF8011B013CFFF798FEA1
:100EE40014F0FF045D48F6D16B49FFF796FE6B4999
:100EF4005A48FFF792FE10222146644800F052FB44
:100F0400224641462846FFF71DFC08B16449B7E76D
:100F1400DFF8B0A17369B3695C4B544614F8011B44
:100F240001932846FFF74CFC5E4A019B7169490610
:100F3400FCD5316903F8011B9442EFD12846FFF731
:100F440047FC46485849FFF768FE504B434807247E
:100F540013F8011B0193013CFFF75AFE14F0FF0440
:100F64003E48019BF4D14C49FFF757FE049444F6E4
:100F74001F62049B934210DD4C493848FFF74DFE35
:100F840010220021414800F00DFB01224946284669
:100F9400FFF7D8FB28B1464972E7049B0133049359
:100FA400E7E76B69AB692B6843F480632B607B696B
:100FB4009A07FCD57B69DFF8D490BB697B691B0673
:100FC400FCD51BF8013B3B61052C06D12B6823F4AF
:100FD40080632B602846FFF7FBFB6B695806FCD542
:100FE4000134E4B22B6909F8013B062CE6D17B6994
:100FF40030491A48DFF8649023F480637B61FFF77B
:101004000CFE224F17F8011B4846013CFFF700FE77
:1010140014F0FF04F6D120491048FFF7FEFD0594B3
:1010240044F61F62059B934211DD23490B48FFF7E9
:10103400F4FD10220021154800F0B4FA01224146C3
:101044002846FFF77FFB00283ED01C4918E7059B84
:1010540001330593E6E700BFA417000800440040ED
:10106400D3170008005C00400058004000540040C2
:10107400A086010040A5AE0288180008A518000843
:10108400031800083318000863180008240000201F
:10109400FB190008BC18000851190008CF180008F3
:1010A400EC180008021A00080319000816190008B1
:1010B40033190008541900086D1900088A1900082A
:1010C400F5190008FB1900086B69AB692B6843F438
:1010D40080632B6073699907FCD573691A4FB369F0
:1010E40073691A06FCD51AF8013B3361062C06D144
:1010F4002B6823F480632B602846FFF769FB6B6938
:101104005B06FCD50134E4B22B6907F8013B072CDC
:10111400E6D173690D490E480D4D23F48063736164
:10112400FFF77BFD009B284613F8011B0093013C4D
:10113400FFF76EFD14F0FF04F4D106490448FFF7ED
:101144006CFD05499CE600BF24000020AB19000893
:101154000044004051190008C419000810B50022C9
:1011640068210446FFF7EEFA40B907480749FFF73C
:1011740054FD2046BDE81040FFF72ABBBDE81040EF
:1011840003490148FFF749BD004400401E1A000806
:10119400381A000873B500220E4668210446FFF78A
:1011A400D1FA30B13F494048FFF737FD002002B083
:1011B40070BD01462046FFF703FB2046FFF708FBFE
:1011C400012268212046FFF7BDFA08B13749EAE752
:1011D400236843F480632360A3696B466269520603
:1011E400FCD50130226903F8012B0628F6D12368C7
:1011F40023F480632360236843F4007323606369EA
:101204005B06FCD52369226842F4806222609DF863
:101214000020C2F3021101EB810102F00F0202EB84
:10122400410232709DF80120110901EB810102F0A5
:101234000F0202EB410272709DF80220C2F3011109
:1012440001EB810102F00F0202EB4102B2709DF842
:101254000320110901EB810102F00F0202EB4102AC
:10126400F2709DF80420110901EB810102F00F02D4
:1012740002EB410232719DF80520C2F3001101EB2B
:10128400810102F00F0202EB41027271C3F30312F7
:1012940002EB820203F00F0303EB4203B37101205C
:1012A40085E700BF511A000800440040731A000883
:1012B40070B5534E05460FCE88B06C460FC496E801
:1012C4000F0084E80F004F494F480A24FFF7A5FC9C
:1012D400A978B1FBF4F130314B48C9B2FFF798FC5F
:1012E400A978B1FBF4F304FB131130314648C9B2B9
:1012F400FFF78EFC44483A21FFF78AFC6978B1FB7A
:10130400F4F130314048C9B2FFF782FC6978B1FB8F
:10131400F4F304FB131130313B48C9B2FFF778FCF6
:1013240039483A21FFF774FC2978B1FBF4F13031E4
:101334003548C9B2FFF76CFC2978B1FBF4F304FB20
:10134400131130313048C9B2FFF762FC2F492E48DF
:10135400FFF763FC2979B1FBF4F130312A48C9B2B3
:10136400FFF756FC2979B1FBF4F304FB1311303178
:101374002548C9B2FFF74CFC23482F21FFF748FC4E
:101384006979B1FBF4F130311F48C9B2FFF740FC71
:101394006979B1FBF4F304FB131130311A48C9B273
:1013A400FFF736FC1A491848FFF737FCA979B1FB57
:1013B400F4F130311448C9B2FFF72AFCA979B1FB22
:1013C400F4F304FB131130310F48C9B2FFF720FCCA
:1013D40010490D48FFF721FCEB780B485A1E062AEA
:1013E4009BBF08AA02EB83030B4953F8201CFFF7A9
:1013F40014FC0A49044808B0BDE87040FFF70DBC6E
:10140400D0150008941A0008004400409B1A0008F4
:10141400A41A0008A81A0008B01A000851190008F4
:1014240010B5002268210446FFF78CF940B907483B
:101434000749FFF7F2FB2046BDE81040FFF7C8B9A3
:10144400BDE8104003490148FFF7E7BB00440040F2
:10145400B31A0008CE1A0008F8B50E4614465721F0
:10146400002205461F46FFF76DF928B1BDE8F84094
:101474000E490F48FFF7D1BB310A2846FFF7A0F900
:10148400F1B22846FFF79CF9202F94BFE61904F126
:101494002006B44204D12846BDE8F840FFF798B9C5
:1014A40014F8011B2846FFF78BF9F2E7E81A000845
:1014B40000440040F8B50F46154657210022044663
:1014C4001E46FFF73FF928B1BDE8F84021492248FC
:1014D400FFF7A3BB390A2046FFF772F9F9B2204699
:1014E400FFF76EF9236843F4807323606369DB07B5
:1014F400FCD5AF23236163699F07FCD5236843F4BC
:1015040080632360A369B11E00239AB28A4219DB67
:1015140063695A06FCD5236823F480632360354449
:10152400236905F8023C63695B06FCD5236843F430
:1015340000732360236905F8013C236843F4806346
:101544002360F8BD60694006FCD52069A8540133C6
:10155400DBE700BF031B00080044004070B50D4DDD
:101564000D4C641BA4100026A64209D10B4D0C4C53
:1015740000F020F8641BA4100026A64205D170BD1B
:1015840055F8043B98470136EEE755F8043B984775
:101594000136F2E7201B0008201B0008201B00086E
:1015A400241B000802440346934200D1704703F809
:1015B400011BF9E7F8B500BFF8BC08BC9E467047AC
:0C15C400F8B500BFF8BC08BC9E4670479C
:1015D000D2160008021A0008061A00080A1A0008A3
:1015E0000E1A0008121A0008161A00081A1A000823
:1015F00000000000000000000102030406070809C3
:101600000D0A3D3D3D204453333233312052544383
:101610002026204154323443333220436F6D6269B7
:101620006E65642054657374203D3D3D0D0A000DC8
:101630000A436F6E6669673A2000493243310049B8
:10164000324332004932433300556E6B6E6F776E12
:1016500000205B426173653D005D202D3E204D61A1
:10166000737465720D0A0A00535441525420626922
:10167000742074696D656F75740D0A0049324320DA
:10168000425553592074696D656F75740D0A0030A9
:1016900031323334353637383941424344454600D8
:1016A0003D3D3D20496E697469616C697A696E6778
:1016B0002044533332333120525443203D3D3D0DBD
:1016C0000A004453333233312052656164792E0D60
:1016D0000A0A003D3D3D20496E697469616C697A72
:1016E000696E6720415432344333322045455052AD
:1016F0004F4D203D3D3D0D0A0057726974696E677C
:10170000206461746120746F20454550524F4D2E06
:101710002E2E0D0A0044617461207772697474651D
:101720006E2E0D0A0052656164696E672062616306
:101730006B20646174612E2E2E0D0A005265616467
:101740006261636B3A20003D3D3D205265616469F2
:101750006E67205254432054696D65203D3D3D0D18
:101760000A0044533332333120726561642066616C
:10177000696C65640D0A00525443206469736162A8
:101780006C6564202D207465737420636F6D706CBC
:101790006574652E0D0A0048656C6C6F20576F727A
:1017A0006C6421000D0A3D3D3D2052756E6E696EE0
:1017B000672049324320496E7465726E616C204C1B
:1017C0006F6F706261636B2054657374203D3D3DA3
:1017D0000D0A000D0A436F6E6669673A204932436D
:1017E00031202D3E204D61737465722C20493243A7
:1017F000322F49324333202D3E20536C617665737E
:101800000D0A000D0A436F6E6669673A204932433C
:1018100032202D3E204D61737465722C2049324375
:10182000312F49324333202D3E20536C617665734E
:101830000D0A000D0A436F6E6669673A204932430C
:1018400033202D3E204D61737465722C2049324344
:10185000312F49324332202D3E20536C617665731F
:101860000D0A00496E76616C6964206D6173746560
:1018700072204944212055736520312C20322C20C0
:101880006F7220332E0D0A000D0A5B544553545DD0
:10189000204D6173746572202D3E20536C61766516
:1018A00020410D0A004E6F2041434B2066726F6D40
:1018B00020536C6176652041210D0A00536C6176DE
:1018C0006520412072656365697665643A20000D84
:1018D0000A5B544553545D204D6173746572202D2D
:1018E0003E20536C61766520420D0A004E6F204108
:1018F000434B2066726F6D20536C617665204221E8
:101900000D0A00536C61766520422072656365693B
:101910007665643A20000D0A5B544553545D2053AC
:101920006C6176652041202D3E204D617374657297
:101930000D0A004E6F2041434B2066726F6D20539D
:101940006C617665204120286F6E20726561642984
:10195000210D0A004D6173746572207265636569BB
:101960007665642066726F6D20413A20000D0A5B37
:10197000544553545D20536C6176652042202D3EC2
:10198000204D61737465720D0A004E6F2041434B08
:101990002066726F6D20536C617665204220286F3F
:1019A0006E207265616429210D0A004D61737465B2
:1019B000722072656365697665642066726F6D205A
:1019C000423A20000D0A3D3D3D20416C6C204932D9
:1019D0004320546573747320436F6D706C65746538
:1019E00064205375636365737366756C6C79203D11
:1019F0003D3D0D0A004A414953414953544D33324C
:101A0000463453756E004D6F6E0054756500576512
:101A10006400546875004672690053617400445351
:101A20003332333120646574656374656420617496
:101A300020307836380D0A00445333323331206E6B
:101A40006F7420726573706F6E64696E67210D0A22
:101A50000044533332333120726561643A20777227
:101A6000697465207068617365206661696C65647E
:101A70000D0A0044533332333120726561643A20D9
:101A800072656164207068617365206661696C6568
:101A9000640D0A0054696D653A2000202044617489
:101AA000653A20002F3230002020444F573A200062
:101AB0003F3F0041543234433332206465746563E0
:101AC00074656420617420307835370D0A00415404
:101AD0003234433332206E6F7420726573706F6ED0
:101AE00064696E67210D0A00E29D8C2045455052C5
:101AF0004F4D204E41434B206F6E207772697465C5
:101B00000D0A00E29D8C20454550524F4D204E411C
:101B1000434B206F6E20616464726573730D0A001D
:041B2000E9010008CF
:041B2400C5010008EF
:081B28000024F4000054004009
:0400000508000215D8
:00000001FF
