:020000040800F2
:100000000000022005020008550200085502000801
:1000100055020008550200085502000800000000C3
:100020000000000000000000000000005502000871
:1000300055020008000000005502000855020008A3
:100040005502000855020008550200085502000834
:100050005502000855020008550200085502000824
:100060005502000855020008550200085502000814
:100070005502000855020008550200085502000804
:1000800055020008550200085502000855020008F4
:1000900055020008550200085502000855020008E4
:1000A00055020008550200085502000855020008D4
:1000B00055020008550200085502000855020008C4
:1000C00055020008550200085502000855020008B4
:1000D00055020008550200085502000855020008A4
:1000E0005502000855020008550200085502000894
:1000F0005502000855020008550200085502000884
:100100005502000855020008550200085502000873
:100110005502000855020008550200085502000863
:100120005502000855020008550200085502000853
:100130005502000800000000000000005502000801
:100140005502000855020008550200085502000833
:100150005502000855020008550200085502000823
:100160005502000855020008550200085502000813
:100170005502000855020008550200080000000062
:100180000000000055020008000000000000000010
:1001900055020008000000000000000055020008A1
:1001A00000000000000000000000000055020008F0
:1001B00055020008550200085502000855020008C3
:0401C00055020008DC
:1001C40010B5054C237833B9044B13B10448AFF38D
:1001D40000800123237010BD0800002000000000EF
:1001E400400B000808B5034B1BB103490348AFF3A8
:1001F400008008BD000000000C000020400B000837
:10020400DFF834D00D480E490E4A002302E0D458DA
:10021400C4500433C4188C42F9D30B4A0B4C00234A
:1002240001E013600432A242FBD300F055F800F061
:1002340061FC00F095F870470000022000000020E7
:1002440008000020E80C000808000020240000201A
:10025400FEE700001C4B1A6842F480321A601A68E8
:100264009103FCD51A6C194942F080521A640A6849
:1002740042F440420A60164A40F205711160154A80
:100284005A601A6842F080721A600F4B1A68920121
:10029400FCD59A689A609A6842F4A0529A609A6867
:1002A40042F400429A609A6822F003029A609A68C3
:1002B40042F002029A60044A936803F00C03082B8C
:1002C400FAD100F013B800BF0038024000700040BB
:1002D400003C0240085A4007034AD2F8883043F4ED
:1002E4007003C2F88830704700ED00E0174A1849DF
:1002F400936803F00C03042B0DD0082B0DD0154B81
:100304000B60124B144A9B68C3F30313D25C0B6853
:10031400D3400B607047114BF2E75368506813F4F5
:10032400800F00F03F00536814BF0C4A094AB2FB27
:10033400F0F0064A5268C2F30142C3F38813013253
:1003440043435200B3FBF2F3DAE700BF0038024044
:10035400000000200024F400780B000840787D01A0
:1003640007B5FFF777FF214C21484FF4E13100F046
:1003740019FA2049204800F0E0F9204A1C49206875
:1003840000F068F81E491C4800F0D7F923681D4A9C
:1003940093421FD11C49184800F0CFF91B49164855
:1003A40000F0CBF92168144800F0D0F9124818493C
:1003B40000F0C3F9206800F033FA2068694600F0C1
:1003C40053FA10B1684600F0DDFA4FF47A7000F089
:1003D4002BF8F2E70F4A934201D10F49DBE70F4AAA
:1003E40093420CBF0E490F49D5E700BF040000201B
:1003F40040A5AE02880B000800440040A08601001E
:10040400A40B000800540040AF0B0008C60B000802
:10041400CE0B000800580040B40B0008005C0040FC
:10042400B90B0008BE0B00084FF0E022084B5361E3
:100434000521002393611161834204DB4FF0E02323
:1004440000221A6170471169C903FCD50133F3E72F
:100454001FBF02001FB58C4B98424DD103F5F233F8
:100464001C6B44F002041C631C6C44F400141C64F4
:100474001B6B0193019B854B1C6824F470441C6026
:100484001C6844F420441C605C6844F0C0045C6054
:100494009C6844F470449C60DC6824F47044DC6020
:1004A400DC6844F4A044DC601C6A24F07F441C62D1
:1004B4001C6A44F088441C62036843F400430360EC
:1004C40000230393039BC72B40F3DB80036823F4CF
:1004D40000430360002303606D4BB1FBF3F34360FF
:1004E40001335200B1FBF2F1C1610362036843F0CE
:1004F4000103036004B010BD664B98425ED103F55E
:10050400F0331C6B44F006041C631C6C44F480043C
:100514001C641B6B0193019B5C4B1C6824F440140A
:100524001C601C6844F400141C605C6844F480641F
:100534005C609C6844F440149C60DC6824F44014BF
:10054400DC60DC6844F48014DC605C6A24F470646D
:100554005C625C6A44F480645C62D3F8004424F016
:100564004074C3F80044D3F8004444F00074C3F862
:100574000044D3F8044444F48054C3F80444D3F846
:10058400084444F04074C3F80844D3F80C4424F0FD
:100594004074C3F80C44D3F80C4444F08074C3F89A
:1005A4000C44D3F8244424F47024C3F82444D3F82A
:1005B400244444F48024C3F824447DE7364B984211
:1005C4007FF47AAF03F5EE331C6B44F005041C632F
:1005D4001C6C44F400041C641B6B0293029B2F4BA1
:1005E4001C6824F440341C601C6844F400341C600F
:1005F4005C6844F480745C609C6844F440349C609F
:10060400DC6824F44034DC60DC6844F48034DC606E
:100614005C6A24F00F045C625C6A44F004045C626B
:10062400D3F8004824F44024C3F80048D3F8004821
:1006340044F40024C3F80048D3F8044844F4007494
:10064400C3F80448D3F8084844F44024C3F80848DD
:10065400D3F80C4824F44024C3F80C48D3F80C48CD
:1006640044F48024C3F80C48D3F8244824F0F0045C
:10067400C3F82448D3F8244844F04004C3F8244879
:100684001AE7039B01331CE70054004000040240B6
:1006940040420F0000580040005C0040000002404F
:1006A40010B51A4B8469A4071FD5013BFAD1184928
:1006B400184800F042F86FF0010015E043695B054B
:1006C4000DD5436923F480634361036843F40073E5
:1006D40003604FF0FF3007E042EA410202614369E0
:1006E4009A07EBD58369002010BD036843F4807337
:1006F4000360064B4469E407EED4013BFAD1064992
:10070400044800F01AF86FF00200EDE7A08601003B
:10071400F00B000800440040DC0B000843691B0692
:10072400FCD501617047036843F4007303607047AC
:1007340003681B06FCD54160704708B54A1E12F8D1
:10074400011F01B908BDFFF7F3FFF8E7F0B5144B3B
:1007540087B004460E4601AA03F1100718685968C9
:10076400154603C50833BB422A46F7D11B782B70C4
:1007740030212046FFF7DCFF7821FFF7D9FF1C2248
:1007840026FA02F303F00F0318336B44204613F8E0
:10079400141C043AFFF7CCFF131DF1D107B0F0BDD0
:1007A400030C00081D4B1A6B42F001021A631A6C09
:1007B40042F400321A64A3F560531A6822F0F0027E
:1007C4001A601A6842F0A0021A601A6A22F47F4280
:1007D4001A621A6A42F4EE421A629A6842F0F0020D
:1007E4009A605A6822F00C025A60DA6822F0F00229
:1007F400DA60A3F5DE3300225A611A61DA6000EB95
:100804005102B2FBF1F29A60DA6842F4005242F00B
:100814000C02DA601A685B68704700BF0038024057
:1008240010B50D4904460D48FFF787FF00226821E3
:100834002046FFF735FF40B908480949FFF77DFF17
:100844002046BDE81040FFF76EBFBDE810400549E3
:100854000248FFF772BF00BF300C0008004400409C
:10086400490C0008630C000873B500220E46682189
:100874000446FFF715FF30B13F494048FFF75DFFDD
:10088400002002B070BD01462046FFF747FF204616
:10089400FFF749FF012268212046FFF701FF08B155
:1008A4003749EAE7236843F480632360A3696B460E
:1008B40062695206FCD50130226903F8012B06282F
:1008C400F6D1236823F480632360236843F4007320
:1008D400236063695B06FCD52369226842F4806265
:1008E40022609DF80020C2F3021101EB810102F0A5
:1008F4000F0202EB410232709DF80120110901EB55
:10090400810102F00F0202EB410272709DF8022095
:10091400C2F3011101EB810102F00F0202EB41026B
:10092400B2709DF80320110901EB810102F00F025E
:1009340002EB4102F2709DF80420110901EB8101E0
:1009440002F00F0202EB410232719DF80520C2F35E
:10095400001101EB810102F00F0202EB41027271FE
:10096400C3F3031202EB820203F00F0303EB42030F
:10097400B371012085E700BF7C0C000800440040EF
:100984009E0C000870B5534E05460FCE88B06C46D9
:100994000FC496E80F0084E80F004F494F480A241B
:1009A400FFF7CBFEA978B1FBF4F130314B48C9B263
:1009B400FFF7BEFEA978B1FBF4F304FB1311303149
:1009C4004648C9B2FFF7B4FE44483A21FFF7B0FEE7
:1009D4006978B1FBF4F130314048C9B2FFF7A8FEA1
:1009E4006978B1FBF4F304FB131130313B48C9B20D
:1009F400FFF79EFE39483A21FFF79AFE2978B1FBAA
:100A0400F4F130313548C9B2FFF792FE2978B1FBD1
:100A1400F4F304FB131130313048C9B2FFF788FEF8
:100A24002F492E48FFF789FE2979B1FBF4F13031C3
:100A34002A48C9B2FFF77CFE2979B1FBF4F304FB21
:100A4400131130312548C9B2FFF772FE23482F2114
:100A5400FFF76EFE6979B1FBF4F130311F48C9B27A
:100A6400FFF766FE6979B1FBF4F304FB131130312F
:100A74001A48C9B2FFF75CFE1A491848FFF75DFE31
:100A8400A979B1FBF4F130311448C9B2FFF750FE33
:100A9400A979B1FBF4F304FB131130310F48C9B247
:100AA400FFF746FE10490D48FFF747FEEB780B4869
:100AB4005A1E062A9BBF08AA02EB83030B4953F86C
:100AC400201CFFF73AFE0A49044808B0BDE870400C
:100AD400FFF733BE580B0008BF0C00080044004069
:100AE400C60C0008CF0C0008D30C0008DB0C00086F
:100AF400790C000870B50D4D0D4C641BA410002634
:100B0400A64209D10B4D0C4C00F018F8641BA4103C
:100B14000026A64205D170BD55F8043B984701361E
:100B2400EEE755F8043B98470136F2E7E00C00087D
:100B3400E00C0008E00C0008E40C0008F8B500BF65
:100B4400F8BC08BC9E467047F8B500BFF8BC08BCAA
:040B54009E46704702
:100B5800480C0008140C0008180C00081C0C0008AD
:100B6800200C0008240C0008280C00082C0C000895
:100B78000000000000000000010203040607080945
:100B88000D0A3D3D3D204453333233312052544306
:100B98002054657374203D3D3D0D0A000D0A436FD6
:100BA8006E6669673A200049324331004932433260
:100BB800004932433300556E6B6E6F776E00205BD1
:100BC800426173653D005D202D3E204D6173746563
:100BD800720D0A005354415254206269742074699A
:100BE8006D656F75740D0A0049324320425553599B
:100BF8002074696D656F75740D0A003031323334B5
:100C080035363738394142434445460053756E00FE
:100C18004D6F6E0054756500576564005468750023
:100C280046726900536174000D0A3D3D3D204453EE
:100C38003332333120496E6974203D3D3D0D0A0A37
:100C480000445333323331206465746563746564DA
:100C580020617420307836380D0A0044533332331B
:100C680031206E6F7420726573706F6E64696E6781
:100C7800210D0A0044533332333120726561643ADE
:100C88002077726974652070686173652066616990
:100C98006C65640D0A004453333233312072656148
:100CA800643A2072656164207068617365206661CA
:100CB800696C65640D0A0054696D653A200020204E
:100CC800446174653A20002F3230002020444F5789
:080CD8003A20003F3F0000003C
:040CE000E90100081E
:040CE400C50100083E
:080CE8000024F4000054004058
:0400000508000205E8
:00000001FF
