:020000040800F2
:100000000000022005020008550200085502000801
:1000100055020008550200085502000800000000C3
:100020000000000000000000000000005502000871
:1000300055020008000000005502000855020008A3
:100040005502000855020008550200085502000834
:100050005502000855020008550200085502000824
:100060005502000855020008550200085502000814
:100070005502000855020008550200085502000804
:1000800055020008550200085502000855020008F4
:1000900055020008550200085502000855020008E4
:1000A00055020008550200085502000855020008D4
:1000B00055020008550200085502000855020008C4
:1000C00055020008550200085502000855020008B4
:1000D00055020008550200085502000855020008A4
:1000E0005502000855020008550200085502000894
:1000F0005502000855020008550200085502000884
:100100005502000855020008550200085502000873
:100110005502000855020008550200085502000863
:100120005502000855020008550200085502000853
:100130005502000800000000000000005502000801
:100140005502000855020008550200085502000833
:100150005502000855020008550200085502000823
:100160005502000855020008550200085502000813
:100170005502000855020008550200080000000062
:100180000000000055020008000000000000000010
:1001900055020008000000000000000055020008A1
:1001A00000000000000000000000000055020008F0
:1001B00055020008550200085502000855020008C3
:0401C00055020008DC
:1001C40010B5054C237833B9044B13B10448AFF38D
:1001D40000800123237010BD0400002000000000F3
:1001E400640B000808B5034B1BB103490348AFF384
:1001F400008008BD0000000008000020640B000817
:10020400DFF834D00D480E490E4A002302E0D458DA
:10021400C4500433C4188C42F9D30B4A0B4C00234A
:1002240001E013600432A242FBD300F055F800F061
:1002340073FC00F095F870470000022000000020D5
:1002440004000020B00C000804000020200000205E
:10025400FEE700001C4B1A6842F480321A601A68E8
:100264009103FCD51A6C194942F080521A640A6849
:1002740042F440420A60164A40F205711160154A80
:100284005A601A6842F080721A600F4B1A68920121
:10029400FCD59A689A609A6842F4A0529A609A6867
:1002A40042F400429A609A6822F003029A609A68C3
:1002B40042F002029A60044A936803F00C03082B8C
:1002C400FAD100F013B800BF0038024000700040BB
:1002D400003C0240085A4007034AD2F8883043F4ED
:1002E4007003C2F88830704700ED00E0174A1849DF
:1002F400936803F00C03042B0DD0082B0DD0154B81
:100304000B60124B144A9B68C3F30313D25C0B6853
:10031400D3400B607047114BF2E75368506813F4F5
:10032400800F00F03F00536814BF0C4A094AB2FB27
:10033400F0F0064A5268C2F30142C3F38813013253
:1003440043435200B3FBF2F3DAE700BF0038024044
:10035400000000200024F4007C0B000840787D019C
:1003640007B5FFF777FF244924484FF4E13200F042
:1003740019FA234A2049234800F068F81F48224903
:1003840000F0A5FA1F4800F015FB20B11F491B48D7
:1003940000F09DFAFEE71B481A4E1D4D174C00F065
:1003A40055FB642000F03CF86946304600F06CFBD5
:1003B4002946204600F08BFABDF90010204600F0D3
:1003C4008FFA2046134900F082FABDF90210204644
:1003D40000F086FA2046104900F079FABDF90410BD
:1003E400204600F07DFA20460C4900F070FA4FF4E4
:1003F400FA7000F015F8D7E740A5AE0200440040BB
:10040400A0860100005400408C0B0008A50B0008D6
:10041400B70B0008BB0B0008C10B00088B0C0008CD
:100424004FF0E022084B53610521002393611161D1
:10043400834204DB4FF0E02300221A617047116904
:10044400C903FCD50133F3E71FBF02001FB58C4B72
:1004540098424DD103F5F2331C6B44F002041C6343
:100464001C6C44F400141C641B6B0193019B854BAE
:100474001C6824F470441C601C6844F420441C6010
:100484005C6844F0C0045C609C6844F470449C6004
:10049400DC6824F47044DC60DC6844F4A044DC6070
:1004A4001C6A24F07F441C621C6A44F088441C6269
:1004B400036843F40043036000230393039BC72BA7
:1004C40040F3DB80036823F40043036000230360EC
:1004D4006D4BB1FBF3F3436001335200B1FBF2F116
:1004E400C1610362036843F00103036004B010BDFB
:1004F400664B98425ED103F5F0331C6B44F006045E
:100504001C631C6C44F480041C641B6B0193019BEE
:100514005C4B1C6824F440141C601C6844F40014F4
:100524001C605C6844F480645C609C6844F440141F
:100534009C60DC6824F44014DC60DC6844F48014BF
:10054400DC605C6A24F470645C625C6A44F4806419
:100554005C62D3F8004424F04074C3F80044D3F838
:10056400004444F00074C3F80044D3F8044444F451
:100574008054C3F80444D3F8084444F04074C3F8E6
:100584000844D3F80C4424F04074C3F80C44D3F862
:100594000C4444F08074C3F80C44D3F8244424F489
:1005A4007024C3F82444D3F8244444F48024C3F8C6
:1005B40024447DE7364B98427FF47AAF03F5EE335B
:1005C4001C6B44F005041C631C6C44F400041C64A0
:1005D4001B6B0293029B2F4B1C6824F440341C6059
:1005E4001C6844F400341C605C6844F480745C60EF
:1005F4009C6844F440349C60DC6824F44034DC603F
:10060400DC6844F48034DC605C6A24F00F045C62CF
:100614005C6A44F004045C62D3F8004824F4402487
:10062400C3F80048D3F8004844F40024C3F8004851
:10063400D3F8044844F40074C3F80448D3F80848D1
:1006440044F44024C3F80848D3F80C4824F4402464
:10065400C3F80C48D3F80C4844F48024C3F80C487D
:10066400D3F8244824F0F004C3F82448D3F82448E9
:1006740044F04004C3F824481AE7039B01331CE701
:10068400005400400004024040420F000058004063
:10069400005C00400000024010B51A4B8469A407B6
:1006A4001FD5013BFAD11849184800F010F96FF032
:1006B400010015E043695B050DD5436923F48063AC
:1006C4004361036843F4007303604FF0FF3007E0B5
:1006D40042EA4102026143699A07EBD5836900202B
:1006E40010BD036843F480730360064B4469E40758
:1006F400EED4013BFAD10649044800F0E8F86FF063
:100704000200EDE7A0860100DB0B00080044004076
:10071400C70B000843691A06FCD5016143695B07EE
:10072400FCD57047036843F400730360704700000E
:10073400F0B500F13F431A4C03F57E03266B012507
:100744009B0A05FA03F333432363066801FA05F7AA
:100754000323BB4026EA0306066006680224BC4065
:100764003443046084681C43846044688D4024EAF4
:1007740005054560C46824EA0303C360CB0800EBA5
:10078400830001F00701036A89000F248C4023EAE7
:1007940004030362036A8A401A430262F0BD00BF85
:1007A400003802403C4B984270B504460D4616464C
:1007B40020D13A4A3A48536C43F010035364092158
:1007C4000722FFF7B5FF07220A213548FFF7B0FFDC
:1007D4000023636105EB56012361B1FBF6F1E3608D
:1007E400A160E36843F4005343F00C03E36023681F
:1007F400636870BD2B4B98420CD1284A2848136C6F
:1008040043F40033136402210722FFF791FF072208
:100814000321DAE7244B98420DD1204A2348136C74
:1008240043F4802313640A210722FFF781FF072280
:1008340005211F48CAE71F4B98420CD1174A184894
:10084400136C43F40023136400210822FFF770FFA4
:1008540008220121B9E7184B98420DD10F4A1448D8
:10086400136C43F4801313640C210822FFF760FF18
:10087400124808220221A9E7114B9842B9D1074A2C
:100884000B48536C43F02003536406210822FFF7FE
:100894004FFF08220721CCE7001001400038024036
:1008A40000000240004400400048004000040240B0
:1008B40000080240004C004000500040000C024080
:1008C4000014014003681B06FCD54160704708B55D
:1008D4004A1E12F8011F01B908BDFFF7F3FFF8E73C
:1008E400F0B50A1E85B0054603DA2D21FFF7EAFFAD
:1008F400524201AB00241F460A26B2FBF6F006FB67
:100904001021303103F8011B1146092904F10104B7
:100914000246F2DC013C01D205B0F0BD395D284647
:10092400FFF7D0FFF6E70000F0B5164B87B0064698
:100934000A4601AC03F1100718685968254603C537
:100944000833BB422C46F7D11B782B70304630213C
:10095400FFF7B8FF7821FFF7B5FF06AB03EB1213DF
:1009640002F00F0213F8141CFFF7ACFF02F1180396
:100974000DEB030212F8141C07B0BDE8F040FFF7BA
:10098400A1BF00BFEE0B000870B504460E46154625
:1009940053210022FFF780FE31462046FFF7BAFEBE
:1009A40020462946FFF7B6FE2046BDE87040FFF713
:1009B400B9BE000038B5204904462048FFF787FF38
:1009C400002253212046FFF767FE00212046FFF74F
:1009D400A1FE236843F4807323606369D907FCD5BF
:1009E400A723236163699A07FCD5236823F48063F2
:1009F40023602046A369FFF795FE63695B06FCD577
:100A040025692368EDB243F48063E52D236005D1A5
:100A14000A480B49FFF75BFF002038BD0949074826
:100A2400FFF755FF05482946FFF77EFF03480649AF
:100A3400FFF74DFF0120F0E7FF0B000800440040E2
:100A44001F0C00084C0C00088B0C000838B50B4D2B
:100A54000B4904462846FFF73AFF20460B22312172
:100A6400FFF792FF20462D210822FFF78DFF28462D
:100A74000449BDE83840FFF72ABF00BF00440040E6
:100A8400740C00088E0C000873B5002204460D4651
:100A94005321FFF701FE32212046FFF73BFE236876
:100AA40043F4807323606369DE07FCD5A7232361C5
:100AB40063699807FCD5236843F480632360A369C2
:100AC4006A46002361694906FCD501339BB221695A
:100AD40002F8011B042BF5D163695A06FCD523687F
:100AE40023F4806323602669F6B263695B06FCD550
:100AF4002046FFF717FE2269236843F480632360CE
:100B0400BDF800302B80BDF802306B8046EA022627
:100B1400AE8002B070BD000070B50D4D0D4C641B6D
:100B2400A4100026A64209D10B4D0C4C00F018F875
:100B3400641BA4100026A64205D170BD55F8043BE1
:100B440098470136EEE755F8043B98470136F2E73B
:100B5400A80C0008A80C0008A80C0008AC0C00089D
:100B6400F8B500BFF8BC08BC9E467047F8B500BF96
:080B7400F8BC08BC9E46704766
:100B7C000000000000000000010203040607080941
:100B8C000D0A3D3D3D204144584C333435205465CD
:100B9C007374203D3D3D0D0A0048616C74696E67AD
:100BAC002073797374656D2E0D0A00583A20000974
:100BBC0020593A200009205A3A20005354415254EB
:100BCC00206269742074696D656F75740D0A004933
:100BDC00324320425553592074696D656F75740DFD
:100BEC000A003031323334353637383941424344D8
:100BFC0045460054657374696E67204144584C3304
:100C0C00343520436F6E6E656374696F6E2E2E2EB5
:100C1C000D0A004144584C33343520436F6E6E65D9
:100C2C006374696F6E2073756363657373212044FD
:100C3C0065766963652049443D307845350D0A0079
:100C4C004144584C33343520436F6E6E6563746980
:100C5C006F6E206661696C656421204465766963FA
:100C6C00652049443D307800496E697469616C694E
:100C7C007A696E67204144584C3334352E2E2E0D34
:100C8C000A004144584C33343520496E6974206352
:0C0C9C006F6D706C6574652E0D0A000011
:040CA800E901000856
:040CAC00C501000876
:040CB0000024F40028
:0400000508000205E8
:00000001FF
