:020000040800F2
:100000000000022005020008550200085502000801
:1000100055020008550200085502000800000000C3
:100020000000000000000000000000005502000871
:1000300055020008000000005502000855020008A3
:100040005502000855020008550200085502000834
:100050005502000855020008550200085502000824
:100060005502000855020008550200085502000814
:100070005502000855020008550200085502000804
:1000800055020008550200085502000855020008F4
:1000900055020008550200085502000855020008E4
:1000A00055020008550200085502000855020008D4
:1000B00055020008550200085502000855020008C4
:1000C00055020008550200085502000855020008B4
:1000D00055020008550200085502000855020008A4
:1000E0005502000855020008550200085502000894
:1000F0005502000855020008550200085502000884
:100100005502000855020008550200085502000873
:100110005502000855020008550200085502000863
:100120005502000855020008550200085502000853
:100130005502000800000000000000005502000801
:100140005502000855020008550200085502000833
:100150005502000855020008550200085502000823
:100160005502000855020008550200085502000813
:100170005502000855020008550200080000000062
:100180000000000055020008000000000000000010
:1001900055020008000000000000000055020008A1
:1001A00000000000000000000000000055020008F0
:1001B00055020008550200085502000855020008C3
:0401C00055020008DC
:1001C40010B5054C237833B9044B13B10448AFF38D
:1001D40000800123237010BD0400002000000000F3
:1001E4004C0A000808B5034B1BB103490348AFF39D
:1001F400008008BD00000000080000204C0A000830
:10020400DFF834D00D480E490E4A002302E0D458DA
:10021400C4500433C4188C42F9D30B4A0B4C00234A
:1002240001E013600432A242FBD300F055F800F061
:10023400E7FB00F095F87047000002200000002062
:1002440004000020900B000804000020200000207F
:10025400FEE700001C4B1A6842F480321A601A68E8
:100264009103FCD51A6C194942F080521A640A6849
:1002740042F440420A60164A40F205711160154A80
:100284005A601A6842F080721A600F4B1A68920121
:10029400FCD59A689A609A6842F4A0529A609A6867
:1002A40042F400429A609A6822F003029A609A68C3
:1002B40042F002029A60044A936803F00C03082B8C
:1002C400FAD100F013B800BF0038024000700040BB
:1002D400003C0240085A4007034AD2F8883043F4ED
:1002E4007003C2F88830704700ED00E0174A1849DF
:1002F400936803F00C03042B0DD0082B0DD0154B81
:100304000B60124B144A9B68C3F30313D25C0B6853
:10031400D3400B607047114BF2E75368506813F4F5
:10032400800F00F03F00536814BF0C4A094AB2FB27
:10033400F0F0064A5268C2F30142C3F38813013253
:1003440043435200B3FBF2F3DAE700BF0038024044
:10035400000000200024F400640A000840787D01B5
:1003640007B5FFF777FF24484FF4E13100F040FA76
:10037400224A2149224800F069F82248224900F023
:10038400DBF91F4800F088FA20B120491D4800F02D
:10039400D3F9FEE71A481A4E1D4D1A4C00F0CAFA5A
:1003A400642000F03DF86946304600F0E1FA294641
:1003B400204600F0C1F9BDF90010204600F0C5F94F
:1003C4002046144900F0B8F9BDF90210204600F0A7
:1003D400BCF92046104900F0AFF9BDF904102046DD
:1003E40000F0B3F920460D4900F0A6F94FF4FA7075
:1003F40000F016F8D7E700BF40A5AE02A0860100C2
:100404000054004000440040740A00088D0A0008AB
:100414009F0A0008A30A0008A90A00086B0B000839
:100424004FF0E022084B53610521002393611161D1
:10043400834204DB4FF0E02300221A617047116904
:10044400C903FCD50133F3E71FBF02001FB58C4B72
:1004540098424DD103F5F2331C6B44F002041C6343
:100464001C6C44F400141C641B6B0193019B854BAE
:100474001C6824F470441C601C6844F420441C6010
:100484005C6844F0C0045C609C6844F470449C6004
:10049400DC6824F47044DC60DC6844F4A044DC6070
:1004A4001C6A24F07F441C621C6A44F088441C6269
:1004B400036843F40043036000230393039BC72BA7
:1004C40040F3DB80036823F40043036000230360EC
:1004D4006D4BB1FBF3F3436001335200B1FBF2F116
:1004E400C1610362036843F00103036004B010BDFB
:1004F400664B98425ED103F5F0331C6B44F006045E
:100504001C631C6C44F480041C641B6B0193019BEE
:100514005C4B1C6824F440141C601C6844F40014F4
:100524001C605C6844F480645C609C6844F440141F
:100534009C60DC6824F44014DC60DC6844F48014BF
:10054400DC605C6A24F470645C625C6A44F4806419
:100554005C62D3F8004424F04074C3F80044D3F838
:10056400004444F00074C3F80044D3F8044444F451
:100574008054C3F80444D3F8084444F04074C3F8E6
:100584000844D3F80C4424F04074C3F80C44D3F862
:100594000C4444F08074C3F80C44D3F8244424F489
:1005A4007024C3F82444D3F8244444F48024C3F8C6
:1005B40024447DE7364B98427FF47AAF03F5EE335B
:1005C4001C6B44F005041C631C6C44F400041C64A0
:1005D4001B6B0293029B2F4B1C6824F440341C6059
:1005E4001C6844F400341C605C6844F480745C60EF
:1005F4009C6844F440349C60DC6824F44034DC603F
:10060400DC6844F48034DC605C6A24F00F045C62CF
:100614005C6A44F004045C62D3F8004824F4402487
:10062400C3F80048D3F8004844F40024C3F8004851
:10063400D3F8044844F40074C3F80448D3F80848D1
:1006440044F44024C3F80848D3F80C4824F4402464
:10065400C3F80C48D3F80C4844F48024C3F80C487D
:10066400D3F8244824F0F004C3F82448D3F82448E9
:1006740044F04004C3F824481AE7039B01331CE701
:10068400005400400004024040420F000058004063
:10069400005C00400000024010B51A4B8469A407B6
:1006A4001FD5013BFAD11849184800F045F86FF0FE
:1006B400010015E043695B050DD5436923F48063AC
:1006C4004361036843F4007303604FF0FF3007E0B5
:1006D40042EA4102026143699A07EBD5836900202B
:1006E40010BD036843F480730360064B4469E40758
:1006F400EED4013BFAD10649044800F01DF86FF02E
:100704000200EDE7A0860100C30A0008004400408F
:10071400AF0A000843691A06FCD5016143695B0707
:10072400FCD57047036843F40073036070470368A3
:100734001B06FCD54160704708B54A1E12F8011F1C
:1007440001B908BDFFF7F3FFF8E7F0B50A1E85B05D
:10075400054603DA2D21FFF7EAFF524201AB0024DC
:100764001F460A26B2FBF6F006FB1021303103F8CF
:10077400011B1146092904F101040246F2DC013C83
:1007840001D205B0F0BD395D2846FFF7D0FFF6E78A
:10079400F0B5164B87B006460A4601AC03F11007C4
:1007A40018685968254603C50833BB422C46F7D15F
:1007B4001B782B7030463021FFF7B9FF7821FFF703
:1007C400B6FF06AB03EB121302F00F0213F8141C6E
:1007D400FFF7ADFF02F118030DEB030212F8141C2E
:1007E40007B0BDE8F040FFF7A2BF00BFD60A00087B
:1007F4001D4B1A6B42F001021A631A6C42F4003268
:100804001A64A3F560531A6822F0F0021A601A6899
:1008140042F0A0021A601A6A22F47F421A621A6A2B
:1008240042F4EE421A629A6842F0F0029A605A6800
:1008340022F00C025A60DA6822F0F002DA60A3F5C2
:10084400DE3300225A611A61DA6000EB5102B2FB16
:10085400F1F29A60DA6842F4005242F00C02DA6073
:100864001A685B68704700BF0038024070B50446E0
:100874000E46154653210022FFF70EFF314620464F
:10088400FFF748FF20462946FFF744FF2046BDE80E
:100894007040FFF747BF000038B52149044621489E
:1008A400FFF74AFF002253212046FFF7F5FE0021FF
:1008B4002046FFF72FFF236843F4807323606369A6
:1008C400D907FCD5A723236163699A07FCD523685C
:1008D40023F480632360A369236843F400732360D3
:1008E40063695B06FCD525692368EDB243F4806334
:1008F400E52D236005D10B480B49FFF71DFF0020B0
:1009040038BD0A490748FFF717FF06482946FFF78D
:100914003FFF04480649FFF70FFF0120F0E700BF3F
:10092400E70A000800440040070B0008300B0008E9
:100934006B0B000838B50B4D0B4904462846FFF7EE
:10094400FBFE20460B223121FFF790FF20462D218C
:100954000822FFF78BFF28460449BDE83840FFF71B
:10096400EBBE00BF00440040540B00086E0B0008AF
:1009740037B5044600220D465321FFF78DFE322180
:100984002046FFF7C7FE236843F48073236063693E
:10099400DA07FCD5A723236163699B07FCD5236889
:1009A40043F480632360A3696A46002361694806AF
:1009B400FCD501339BB2216902F8011B042BF5D14C
:1009C40063695906FCD5236823F480632360236993
:1009D400DBB262695206FCD5226842F400722260DE
:1009E4002169226842F480622260BDF800202A80D6
:1009F400BDF802206A8043EA0123AB8003B030BD16
:100A040070B50D4D0D4C641BA4100026A64209D1EF
:100A14000B4D0C4C00F018F8641BA4100026A642E1
:100A240005D170BD55F8043B98470136EEE755F8FB
:100A3400043B98470136F2E7880B0008880B00084E
:100A4400880B00088C0B0008F8B500BFF8BC08BC84
:100A54009E467047F8B500BFF8BC08BC9E46704778
:100A6400000000000000000001020304060708095A
:100A74000D0A3D3D3D204144584C333435205465E6
:100A84007374203D3D3D0D0A0048616C74696E67C6
:100A94002073797374656D2E0D0A00583A2000098D
:100AA40020593A200009205A3A2000535441525404
:100AB400206269742074696D656F75740D0A00494C
:100AC400324320425553592074696D656F75740D16
:100AD4000A003031323334353637383941424344F1
:100AE40045460054657374696E67204144584C331D
:100AF400343520436F6E6E656374696F6E2E2E2ECF
:100B04000D0A004144584C33343520436F6E6E65F2
:100B14006374696F6E207375636365737321204416
:100B2400455649443D307845350D0A004144584CFA
:100B340033343520436F6E6E656374696F6E20665F
:100B440061696C6564212044455649443D30780010
:100B5400496E697469616C697A696E6720414458A9
:100B64004C3334352E2E2E0D0A004144584C333468
:100B74003520496E697420636F6D706C6574652EE1
:040B84000D0A000056
:040B8800E901000877
:040B8C00C501000897
:040B90000024F40049
:0400000508000205E8
:00000001FF
