:020000040800F2
:100000000000022005020008550200085502000801
:1000100055020008550200085502000800000000C3
:100020000000000000000000000000005502000871
:1000300055020008000000005502000855020008A3
:100040005502000855020008550200085502000834
:100050005502000855020008550200085502000824
:100060005502000855020008550200085502000814
:100070005502000855020008550200085502000804
:1000800055020008550200085502000855020008F4
:1000900055020008550200085502000855020008E4
:1000A00055020008550200085502000855020008D4
:1000B00055020008550200085502000855020008C4
:1000C00055020008550200085502000855020008B4
:1000D00055020008550200085502000855020008A4
:1000E0005502000855020008550200085502000894
:1000F0005502000855020008550200085502000884
:100100005502000855020008550200085502000873
:100110005502000855020008550200085502000863
:100120005502000855020008550200085502000853
:100130005502000800000000000000005502000801
:100140005502000855020008550200085502000833
:100150005502000855020008550200085502000823
:100160005502000855020008550200085502000813
:100170005502000855020008550200080000000062
:100180000000000055020008000000000000000010
:1001900055020008000000000000000055020008A1
:1001A00000000000000000000000000055020008F0
:1001B00055020008550200085502000855020008C3
:0401C00055020008DC
:1001C40010B5054C237833B9044B13B10448AFF38D
:1001D40000800123237010BD0400002000000000F3
:1001E400C00B000808B5034B1BB103490348AFF328
:1001F400008008BD0000000008000020C00B0008BB
:10020400DFF834D00D480E490E4A002302E0D458DA
:10021400C4500433C4188C42F9D30B4A0B4C00234A
:1002240001E013600432A242FBD300F055F800F061
:10023400A1FC00F095F870470000022000000020A7
:10024400040000200C0D0008040000202000002001
:10025400FEE700001C4B1A6842F480321A601A68E8
:100264009103FCD51A6C194942F080521A640A6849
:1002740042F440420A60164A40F205711160154A80
:100284005A601A6842F080721A600F4B1A68920121
:10029400FCD59A689A609A6842F4A0529A609A6867
:1002A40042F400429A609A6822F003029A609A68C3
:1002B40042F002029A60044A936803F00C03082B8C
:1002C400FAD100F013B800BF0038024000700040BB
:1002D400003C0240085A4007034AD2F8883043F4ED
:1002E4007003C2F88830704700ED00E0174A1849DF
:1002F400936803F00C03042B0DD0082B0DD0154B81
:100304000B60124B144A9B68C3F30313D25C0B6853
:10031400D3400B607047114BF2E75368506813F4F5
:10032400800F00F03F00536814BF0C4A094AB2FB27
:10033400F0F0064A5268C2F30142C3F38813013253
:1003440043435200B3FBF2F3DAE700BF0038024044
:10035400000000200024F400D80B000840787D0140
:1003640007B5FFF777FF244924484FF4E13200F042
:1003740093FA234A2049234800F068F81F48224989
:1003840000F01FFB1F4800F08FFB20B11F491B48E2
:1003940000F017FBFEE71B481A4E1D4D174C00F0EA
:1003A400B7FB642000F03CF86946304600F0CEFB11
:1003B4002946204600F005FBBDF90010204600F058
:1003C40009FB2046134900F0FCFABDF9021020464F
:1003D40000F000FB2046104900F0F3FABDF90410C8
:1003E400204600F0F7FA20460C4900F0EAFA4FF4F0
:1003F400FA7000F015F8D7E740A5AE0200440040BB
:10040400A086010000540040E80B0008010C00081D
:10041400130C0008170C00081D0C0008E70C00085A
:100424004FF0E022084B53610521002393611161D1
:10043400834204DB4FF0E02300221A617047116904
:10044400C903FCD50133F3E71FBF02001FB58C4B72
:1004540098424DD103F5F2331C6B44F002041C6343
:100464001C6C44F400141C641B6B0193019B854BAE
:100474001C6824F470441C601C6844F420441C6010
:100484005C6844F0C0045C609C6844F470449C6004
:10049400DC6824F47044DC60DC6844F4A044DC6070
:1004A4001C6A24F07F441C621C6A44F088441C6269
:1004B400036843F40043036000230393039BC72BA7
:1004C40040F3DB80036823F40043036000230360EC
:1004D4006D4BB1FBF3F3436001335200B1FBF2F116
:1004E400C1610362036843F00103036004B010BDFB
:1004F400664B98425ED103F5F0331C6B44F006045E
:100504001C631C6C44F480041C641B6B0193019BEE
:100514005C4B1C6824F440141C601C6844F40014F4
:100524001C605C6844F480645C609C6844F440141F
:100534009C60DC6824F44014DC60DC6844F48014BF
:10054400DC605C6A24F470645C625C6A44F4806419
:100554005C62D3F8004424F04074C3F80044D3F838
:10056400004444F00074C3F80044D3F8044444F451
:100574008054C3F80444D3F8084444F04074C3F8E6
:100584000844D3F80C4424F04074C3F80C44D3F862
:100594000C4444F08074C3F80C44D3F8244424F489
:1005A4007024C3F82444D3F8244444F48024C3F8C6
:1005B40024447DE7364B98427FF47AAF03F5EE335B
:1005C4001C6B44F005041C631C6C44F400041C64A0
:1005D4001B6B0293029B2F4B1C6824F440341C6059
:1005E4001C6844F400341C605C6844F480745C60EF
:1005F4009C6844F440349C60DC6824F44034DC603F
:10060400DC6844F48034DC605C6A24F00F045C62CF
:100614005C6A44F004045C62D3F8004824F4402487
:10062400C3F80048D3F8004844F40024C3F8004851
:10063400D3F8044844F40074C3F80448D3F80848D1
:1006440044F44024C3F80848D3F80C4824F4402464
:10065400C3F80C48D3F80C4844F48024C3F80C487D
:10066400D3F8244824F0F004C3F82448D3F82448E9
:1006740044F04004C3F824481AE7039B01331CE701
:10068400005400400004024040420F000058004063
:10069400005C00400000024010B51A4B8469A407B6
:1006A4001FD5013BFAD11849184800F08AF96FF0B8
:1006B400010015E043695B050DD5436923F48063AC
:1006C4004361036843F4007303604FF0FF3007E0B5
:1006D40042EA4102026143699A07EBD5836900202B
:1006E40010BD036843F480730360064B4469E40758
:1006F400EED4013BFAD10649044800F062F96FF0E8
:100704000200EDE7A0860100370C00080044004019
:10071400230C000843691A06FCD5016143695B0791
:10072400FCD57047036843F40073036070472DE9F8
:10073400F04190460022BDF8187004460E461D464E
:10074400FFF7AAFF63691806FCD5C4F81080636933
:100754005907FCD5236843F4807323606369DA077F
:10076400FCD5760046F00106266163699B07FCD53B
:10077400012F236813D123F4806323606369A36981
:10078400236843F40073236063695F06FCD523691F
:100794002B70236843F480632360BDE8F081022F4B
:1007A40018D143F4006323606369A369236823F4C5
:1007B4008063236063695E07FCD5236843F4007398
:1007C400236023692B7023696B70236823F400630F
:1007D4002360DEE743F4806323606369A369B91E81
:1007E40000239AB28A4215DB63695A06FCD53D445C
:1007F400236905F8023C236823F48063236023689B
:1008040043F40073236063695B06FCD5236905F830
:10081400013CBEE760694006FCD52069A854013359
:10082400DFE70000F0B500F13F431A4C03F57E0307
:10083400266B01259B0A05FA03F3334323630668F9
:1008440001FA05F70323BB4026EA0306066006689F
:100854000224BC403443046084681C4384604468BC
:100864008D4024EA05054560C46824EA0303C36097
:10087400CB0800EB830001F00701036A89000F2411
:100884008C4023EA04030362036A8A401A43026227
:10089400F0BD00BF003802403C4B984270B504469E
:1008A4000D46164620D13A4A3A48536C43F0100399
:1008B400536409210722FFF7B5FF07220A213548AF
:1008C400FFF7B0FF0023636105EB56012361B1FB21
:1008D400F6F1E360A160E36843F4005343F00C03D2
:1008E400E3602368636870BD2B4B98420CD1284A9F
:1008F4002848136C43F40033136402210722FFF7E2
:1009040091FF07220321DAE7244B98420DD1204AB4
:100914002348136C43F4802313640A210722FFF74E
:1009240081FF072205211F48CAE71F4B98420CD1BB
:10093400174A1848136C43F4002313640021082257
:10094400FFF770FF08220121B9E7184B98420DD137
:100954000F4A1448136C43F4801313640C210822C7
:10096400FFF760FF124808220221A9E7114B9842C1
:10097400B9D1074A0B48536C43F020035364062152
:100984000822FFF74FFF08220721CCE7001001409F
:10099400003802400000024000440040004800408B
:1009A4000004024000080240004C00400050004097
:1009B400000C02400014014003681B06FCD5416092
:1009C400704708B54A1E12F8011F01B908BDFFF7A8
:1009D400F3FFF8E7F0B50A1E85B0054603DA2D21CA
:1009E400FFF7EAFF524201AB00241F460A26B2FB7E
:1009F400F6F006FB1021303103F8011B11460929DA
:100A040004F101040246F2DC013C01D205B0F0BD60
:100A1400395D2846FFF7D0FFF6E70000F0B5164B26
:100A240087B006460A4601AC03F1100718685968F6
:100A3400254603C50833BB422C46F7D11B782B70DF
:100A440030463021FFF7B8FF7821FFF7B5FF06AB3A
:100A540003EB121302F00F0213F8141CFFF7ACFFA0
:100A640002F118030DEB030212F8141C07B0BDE8E1
:100A7400F040FFF7A1BF00BF4A0C000870B5044660
:100A84000E46154653210022FFF706FE3146204646
:100A9400FFF740FE20462946FFF73CFE2046BDE80E
:100AA4007040FFF73FBE000030B585B005461349DE
:100AB40013480124FFF785FF284600940DF10F0326
:100AC40000225321FFF733FE9DF80F50E52D06D188
:100AD4000B480C49FFF775FF002005B030BD0A49EB
:100AE4000748FFF76EFF06482946FFF797FF0448BB
:100AF4000649FFF766FF2046EFE700BF5B0C0008DE
:100B0400004400407B0C0008A80C0008E70C000817
:100B140038B50B4D0B4904462846FFF752FF2046D3
:100B24000B223121FFF7AAFF20462D210822FFF7CF
:100B3400A5FF28460449BDE83840FFF742BF00BF7F
:100B440000440040D00C0008EA0C00081FB506233E
:100B54000C460093322202AB5321FFF7E8FDBDF8A7
:100B640008302380BDF80A306380BDF80C30A380C0
:100B740004B010BD70B50D4D0D4C641BA4100026BF
:100B8400A64209D10B4D0C4C00F018F8641BA410BC
:100B94000026A64205D170BD55F8043B984701369E
:100BA400EEE755F8043B98470136F2E7040D0008D8
:100BB400040D0008040D0008080D0008F8B500BF76
:100BC400F8BC08BC9E467047F8B500BFF8BC08BC2A
:040BD4009E46704782
:100BD80000000000000000000102030406070809E5
:100BE8000D0A3D3D3D204144584C33343520546571
:100BF8007374203D3D3D0D0A0048616C74696E6751
:100C08002073797374656D2E0D0A00583A20000917
:100C180020593A200009205A3A200053544152548E
:100C2800206269742074696D656F75740D0A0049D6
:100C3800324320425553592074696D656F75740DA0
:100C48000A0030313233343536373839414243447B
:100C580045460054657374696E67204144584C33A7
:100C6800343520436F6E6E656374696F6E2E2E2E59
:100C78000D0A004144584C33343520436F6E6E657D
:100C88006374696F6E2073756363657373212044A1
:100C980065766963652049443D307845350D0A001D
:100CA8004144584C33343520436F6E6E6563746924
:100CB8006F6E206661696C6564212044657669639E
:100CC800652049443D307800496E697469616C69F2
:100CD8007A696E67204144584C3334352E2E2E0DD8
:100CE8000A004144584C33343520496E69742063F6
:0C0CF8006F6D706C6574652E0D0A0000B5
:040D0400E9010008F9
:040D0800C501000819
:040D0C000024F400CB
:0400000508000205E8
:00000001FF
