:020000040800F2
:100000000000022005020008550200085502000801
:1000100055020008550200085502000800000000C3
:100020000000000000000000000000005502000871
:1000300055020008000000005502000855020008A3
:100040005502000855020008550200085502000834
:100050005502000855020008550200085502000824
:100060005502000855020008550200085502000814
:100070005502000855020008550200085502000804
:1000800055020008550200085502000855020008F4
:1000900055020008550200085502000855020008E4
:1000A00055020008550200085502000855020008D4
:1000B00055020008550200085502000855020008C4
:1000C00055020008550200085502000855020008B4
:1000D00055020008550200085502000855020008A4
:1000E0005502000855020008550200085502000894
:1000F0005502000855020008550200085502000884
:100100005502000855020008550200085502000873
:100110005502000855020008550200085502000863
:100120005502000855020008550200085502000853
:100130005502000800000000000000005502000801
:100140005502000855020008550200085502000833
:100150005502000855020008550200085502000823
:100160005502000855020008550200085502000813
:100170005502000855020008550200080000000062
:100180000000000055020008000000000000000010
:1001900055020008000000000000000055020008A1
:1001A00000000000000000000000000055020008F0
:1001B00055020008550200085502000855020008C3
:0401C00055020008DC
:1001C40010B5054C237833B9044B13B10448AFF38D
:1001D40000800123237010BD0400002000000000F3
:1001E400B009000808B5034B1BB103490348AFF33A
:1001F400008008BD0000000008000020B0090008CD
:10020400DFF834D00D480E490E4A002302E0D458DA
:10021400C4500433C4188C42F9D30B4A0B4C00234A
:1002240001E013600432A242FBD300F055F800F061
:1002340099FB00F095F870470000022000000020B0
:1002440004000020F40A000804000020300000200C
:10025400FEE700001C4B1A6842F480321A601A68E8
:100264009103FCD51A6C194942F080521A640A6849
:1002740042F440420A60164A40F205711160154A80
:100284005A601A6842F080721A600F4B1A68920121
:10029400FCD59A689A609A6842F4A0529A609A6867
:1002A40042F400429A609A6822F003029A609A68C3
:1002B40042F002029A60044A936803F00C03082B8C
:1002C400FAD100F013B800BF0038024000700040BB
:1002D400003C0240085A4007034AD2F8883043F4ED
:1002E4007003C2F88830704700ED00E0174A1849DF
:1002F400936803F00C03042B0DD0082B0DD0154B81
:100304000B60124B144A9B68C3F30313D25C0B6853
:10031400D3400B607047114BF2E75368506813F4F5
:10032400800F00F03F00536814BF0C4A094AB2FB27
:10033400F0F0064A5268C2F30142C3F38813013253
:1003440043435200B3FBF2F3DAE700BF0038024044
:10035400000000200024F400C809000840787D0152
:1003640008B5FFF777FF06484FF4E13100F0CCF908
:100374000449054800F0BFF900F054FAFEE700BF55
:1003840040A5AE02D8090008004400402C4B1A6B6B
:1003940042F0020213B51A631A6C42F400121A6492
:1003A400A3F550531A6822F470421A601A6842F492
:1003B40020421A601A6A22F07F421A621A6A42F0D4
:1003C40088421A625A6842F0C0025A609A6842F43B
:1003D40070429A60DA6822F47042DA60DA6842F4B1
:1003E400A042DA60A3F5D8331A6842F400421A60D6
:1003F40000220092009AC72A1BDD1A68002422F406
:1004040000421A601C600F4AB0FBF2F25A600132DB
:100414004900B0FBF1F0D8611A621A6842F0010297
:100424001A60019442F20F72019B934204DD02B000
:1004340010BD009A0132DCE7019B01330193F3E71D
:100444000038024040420F00114B9A699207FCD4D5
:100454001A6842F480721A605A69D207FCD541EADC
:10046400400119610A4B5A69910702D59B69002022
:1004740070475A695205F6D55A6922F480625A6166
:100484001A6842F400721A604FF0FF30704700BFE0
:1004940000540040024B5A691206FCD5186170479B
:1004A40000540040024A136843F400731360704719
:1004B40000540040434B13B51C6B44F006041C630A
:1004C4001C6C44F480041C641B6B0093009B3E4B27
:1004D4001C6824F440141C601C6844F400141C6060
:1004E4005C6844F480645C609C6844F440149C60E0
:1004F400DC6824F44014DC60DC6844F48014DC60C0
:100504005C6A24F470645C625C6A44F480645C62D7
:10051400D3F8004424F04074C3F80044D3F80044F2
:1005240044F00074C3F80044D3F8044444F4805401
:10053400C3F80444D3F8084444F04074C3F80844AE
:10054400D3F80C4424F04074C3F80C44D3F80C449E
:1005540044F08074C3F80C44D3F8244424F4702485
:10056400C3F82444D3F8244403F5806344F480247A
:100574005C62A3F5D8331C6844F400441C60002476
:100584000194019CC72C19DD1C68490024F4004423
:100594001C6041F480410D4CB0FBF4F45C60013408
:1005A4005200B0FBF2F0D8611C6299601A6842F400
:1005B400806242F001021A6002B010BD019C013455
:1005C400DEE700BF003802400004024040420F0052
:1005D400434B13B51C6B44F005041C631C6C44F4BE
:1005E40000041C641B6B0093009B3E4B1C6824F4AA
:1005F40040341C601C6844F400341C605C6844F49F
:1006040080745C609C6844F440349C60DC6824F42E
:100614004034DC60DC6844F48034DC605C6A24F0E0
:100624000F045C625C6A44F004045C62D3F8004822
:1006340024F44024C3F80048D3F8004844F40024C8
:10064400C3F80048D3F8044844F40074C3F80448D9
:10065400D3F8084844F44024C3F80848D3F80C48B5
:1006640024F44024C3F80C48D3F80C4844F4802400
:10067400C3F80C48D3F8244824F0F004C3F8244801
:10068400D3F8244803F5006344F040045C62A3F506
:10069400D6331C6844F400441C6000240194019C7B
:1006A400C72C19DD1C68490024F400441C6041F483
:1006B40080410D4CB0FBF4F45C6001345200B0FB9B
:1006C400F2F0D8611C6299601A6842F4806242F0C8
:1006D40001021A6002B010BD019C0134DEE700BFC4
:1006E400003802400000024040420F0003681B062D
:1006F400FCD54160704708B54A1E12F8011F01B9C4
:1007040008BDFFF7F3FFF8E71D4B1A6B42F0010237
:100714001A631A6C42F400321A64A3F560531A681F
:1007240022F0F0021A601A6842F0A0021A601A6AF3
:1007340022F47F421A621A6A42F4EE421A629A68FA
:1007440042F0F0029A605A6822F00C025A60DA68A9
:1007540022F0F002DA60A3F5DE3300225A611A6156
:10076400DA6000EB5102B2FBF1F29A60DA6842F40B
:10077400005242F00C02DA601A685B68704700BFEE
:1007840000380240254A136B43F002031363244BE1
:100794001A6822F470421A601A6842F4A0421A607D
:1007A4005A6842F0C0025A605A6942F0C0025A6163
:1007B40084B009220020596921F040015961019057
:1007C4000199B1F5967F1DDB596941F040015961EA
:1007D40002900299B1F5967F18DB013AEBD1596981
:1007E40021F0800159610392039AB2F5967F11DBDF
:1007F4005A6942F0C0025A611A6822F470421A60BF
:1008040004B07047019901310191D9E7029901318E
:100814000291DEE7039A0132E5E700BF00380240A7
:10082400000402402DE9F0413F494048404E414D0B
:10083400DFF82881FFF75FFFFFF7A4FF3E4A3F4838
:100844003A21FFF737FE3C4A3C483B21FFF7C0FE04
:1008540039493A48FFF79AFD39493448FFF74BFFC5
:1008640000213A20FFF7F0FD7369B3692F4606248F
:1008740018F8010BFFF70EFE73695A06FCD5013C0C
:10088400336907F8013B14F0FF04F1D1FFF70AFEC6
:100894002C492648274E254FFFF72DFF062416F82E
:1008A400011B3846013CFFF721FF14F0FF04F6D189
:1008B40025491E48254EDFF8A8801E4FFFF71BFF71
:1008C40023491A48FFF717FF21463B20FFF7BCFDD9
:1008D4007369B369072418F8010BFFF7DBFD73692B
:1008E4005B06FCD5013C336907F8013B14F0FF04B7
:1008F400F1D1FFF7D7FD17490C480C4EFFF7FBFE6B
:10090400072415F8011B3046013CFFF7EFFE14F0F5
:10091400FF04F6D10C490548FFF7EDFEBDE8F041B0
:100924000D490248FFF7E7BE000A000800440040F2
:100934000058004020000020A086010040A5AE021F
:10094400310A00085C0A0008590A0008005C0040EB
:100954006E0A0008990A0008AB0A0008DC0A0008BD
:10096400E20A000870B50D4D0D4C641BA41000265E
:10097400A64209D10B4D0C4C00F018F8641BA410CE
:100984000026A64205D170BD55F8043B98470136B0
:10099400EEE755F8043B98470136F2E7EC0A000805
:1009A400EC0A0008EC0A0008F00A0008F8B500BFD9
:1009B400F8BC08BC9E467047F8B500BFF8BC08BC3C
:0409C4009E46704794
:1009C80000000000000000000102030406070809F7
:1009D80052756E6E696E672049324320696E746580
:1009E800726E616C206C6F6F706261636B207465EE
:1009F80073742E2E2E0D0A000D0A3D3D3D204932FE
:100A08004331204D6173746572202D3E2049324375
:100A1800322F4932433320536C6176657320546515
:100A28007374203D3D3D0D0A000D0A5B5445535437
:100A38005D204D6173746572202D3E20536C617684
:100A48006520412028493243322040203078334104
:100A5800290D0A00536C61766541207265636569EA
:100A68007665643A20000D0A5B544553545D204D69
:100A78006173746572202D3E20536C617665204247
:100A880020284932433320402030783342290D0A48
:100A980000536C61766542207265636569766564AA
:100AA8003A20000D0A3D3D3D20416C6C20493243FF
:100AB80020546573747320436F6D706C657465643E
:100AC800205375636365737366756C6C79203D3D5F
:100AD8003D0D0A004A414953414953544D3332466A
:040AE80034000000D6
:040AEC00E901000814
:040AF000C501000834
:040AF4000024F400E6
:0400000508000205E8
:00000001FF
