:020000040800F2
:100000000000022005020008550200085502000801
:1000100055020008550200085502000800000000C3
:100020000000000000000000000000005502000871
:1000300055020008000000005502000855020008A3
:100040005502000855020008550200085502000834
:100050005502000855020008550200085502000824
:100060005502000855020008550200085502000814
:100070005502000855020008550200085502000804
:1000800055020008550200085502000855020008F4
:1000900055020008550200085502000855020008E4
:1000A00055020008550200085502000855020008D4
:1000B00055020008550200085502000855020008C4
:1000C00055020008550200085502000855020008B4
:1000D00055020008550200085502000855020008A4
:1000E0005502000855020008550200085502000894
:1000F0005502000855020008550200085502000884
:100100005502000855020008550200085502000873
:100110005502000855020008550200085502000863
:100120005502000855020008550200085502000853
:100130005502000800000000000000005502000801
:100140005502000855020008550200085502000833
:100150005502000855020008550200085502000823
:100160005502000855020008550200085502000813
:100170005502000855020008550200080000000062
:100180000000000055020008000000000000000010
:1001900055020008000000000000000055020008A1
:1001A00000000000000000000000000055020008F0
:1001B00055020008550200085502000855020008C3
:0401C00055020008DC
:1001C40010B5054C237833B9044B13B10448AFF38D
:1001D40000800123237010BD0400002000000000F3
:1001E400400C000808B5034B1BB103490348AFF3A7
:1001F400008008BD0000000008000020400C00083A
:10020400DFF834D00D480E490E4A002302E0D458DA
:10021400C4500433C4188C42F9D30B4A0B4C00234A
:1002240001E013600432A242FBD300F055F800F061
:10023400E1FC00F095F87047000002200000002067
:1002440004000020480E00080400002030000020B4
:10025400FEE700001C4B1A6842F480321A601A68E8
:100264009103FCD51A6C194942F080521A640A6849
:1002740042F440420A60164A40F205711160154A80
:100284005A601A6842F080721A600F4B1A68920121
:10029400FCD59A689A609A6842F4A0529A609A6867
:1002A40042F400429A609A6822F003029A609A68C3
:1002B40042F002029A60044A936803F00C03082B8C
:1002C400FAD100F013B800BF0038024000700040BB
:1002D400003C0240085A4007034AD2F8883043F4ED
:1002E4007003C2F88830704700ED00E0174A1849DF
:1002F400936803F00C03042B0DD0082B0DD0154B81
:100304000B60124B144A9B68C3F30313D25C0B6853
:10031400D3400B607047114BF2E75368506813F4F5
:10032400800F00F03F00536814BF0C4A094AB2FB27
:10033400F0F0064A5268C2F30142C3F38813013253
:1003440043435200B3FBF2F3DAE700BF0038024044
:10035400000000200024F400580C000840787D01BF
:1003640008B5FFF777FF09484FF4E13100F014FBBB
:100374000749084800F007FB012000F04BFB02206E
:1003840000F048FB032000F045FBFEE740A5AE0269
:10039400680C000800440040254A136B43F0020334
:1003A4001363244B1A6822F470421A601A6842F4E8
:1003B400A0421A605A6842F0C0025A605A6942F078
:1003C400C0025A6184B009220020596921F0400119
:1003D400596101900199B1F5967F1DDB596941F08E
:1003E4004001596102900299B1F5967F18DB013AF8
:1003F400EBD1596921F0800159610392039AB2F556
:10040400967F11DB5A6942F0C0025A611A6822F4DD
:1004140070421A6004B07047019901310191D9E723
:10042400029901310291DEE7039A0132E5E700BF48
:1004340000380240000402401FB58C4B98424DD155
:1004440003F5F2331C6B44F002041C631C6C44F48B
:1004540000141C641B6B0193019B854B1C6824F4E2
:1004640070441C601C6844F420441C605C6844F0C4
:10047400C0045C609C6844F470449C60DC6824F4B0
:100484007044DC60DC6844F4A044DC601C6A24F042
:100494007F441C621C6A44F088441C62036843F471
:1004A4000043036000230393039BC72B40F3DB80CB
:1004B400036823F400430360002303606D4BB1FB26
:1004C400F3F3436001335200B1FBF2F1C161036203
:1004D400036843F00103036004B010BD664B984207
:1004E4005ED103F5F0331C6B44F006041C631C6CF2
:1004F40044F480041C641B6B0193019B5C4B1C68DB
:1005040024F440141C601C6844F400141C605C68EF
:1005140044F480645C609C6844F440149C60DC682F
:1005240024F44014DC60DC6844F48014DC605C6A0D
:1005340024F470645C625C6A44F480645C62D3F8A2
:10054400004424F04074C3F80044D3F8004444F059
:100554000074C3F80044D3F8044444F48054C3F84A
:100564000444D3F8084444F04074C3F80844D3F86E
:100574000C4424F04074C3F80C44D3F80C4444F005
:100584008074C3F80C44D3F8244424F47024C3F8CE
:100594002444D3F8244444F48024C3F824447DE759
:1005A400364B98427FF47AAF03F5EE331C6B44F07C
:1005B40005041C631C6C44F400041C641B6B029350
:1005C400029B2F4B1C6824F440341C601C6844F4C8
:1005D40000341C605C6844F480745C609C6844F47F
:1005E40040349C60DC6824F44034DC60DC6844F40F
:1005F4008034DC605C6A24F00F045C625C6A44F062
:1006040004045C62D3F8004824F44024C3F800488E
:10061400D3F8004844F40024C3F80048D3F804484D
:1006240044F40074C3F80448D3F8084844F440245C
:10063400C3F80848D3F80C4824F44024C3F80C4801
:10064400D3F80C4844F48024C3F80C48D3F8244865
:1006540024F0F004C3F82448D3F8244844F04004B8
:10066400C3F824481AE7039B01331CE700540040F5
:100674000004024040420F0000580040005C00406B
:100684000000024083699B07FCD4036843F4807331
:1006940003604369DB07FCD542EA41020261436916
:1006A4009A0702D583690020704743695B05F6D534
:1006B400436923F480634361036843F40073036074
:1006C4004FF0FF30704743691B06FCD5016170474A
:1006D400036843F4007303607047000070B5A14CD5
:1006E400A04286B076D104F5F234256B45F00205BC
:1006F4002563256C45F400152564246B0194019C45
:10070400994C256825F470452560256845F42045F5
:100714002560656845F0C0056560A56845F47045C9
:10072400A560E56825F47045E560E56845F4A045F5
:10073400E560256A25F07F452562256A45F08845F0
:100744002562046844F40044046000240294029C7A
:10075400C72C3CDD834C256825F400452560834D7A
:10076400B1FBF5F5656001355E00B1FBF6F6E661B7
:100774002562550045F48045A560256845F48065EB
:1007840045F001052560046844F400440460002435
:100794000594059CC72C40F3E1800468520024F4BE
:1007A4000044046042F48042704CB1FBF4F44460B1
:1007B40001345B00B1FBF3F1C16104628260036840
:1007C40043F4806343F00103036006B070BD029CF0
:1007D4000134BBE7664CA0425ED104F5F034256BCE
:1007E40045F006052563256C45F480052564246BD6
:1007F4000394039C5C4C256825F44015256025680A
:1008040045F400152560656845F480656560A56854
:1008140045F44015A560E56825F44015E560E568F4
:1008240045F48015E560656A25F470656562656A5E
:1008340045F480656562D4F8005425F04075C4F829
:100844000054D4F8005445F00075C4F80054D4F8AA
:10085400045445F48055C4F80454D4F8085445F0BD
:100864004075C4F80854D4F80C5425F04075C4F805
:100874000C54D4F80C5445F08075C4F80C54D4F8D6
:10088400245425F47025C4F82454D4F8245445F48D
:100894008025C4F8245476E7364CA04295D104F55B
:1008A400EE34256B45F005052563256C45F40005FC
:1008B4002564246B0494049C2F4C256825F440354E
:1008C4002560256845F400352560656845F4807524
:1008D4006560A56845F44035A560E56825F44035B4
:1008E400E560E56845F48035E560656A25F00F0547
:1008F4006562656A45F004056562D4F8005825F41C
:100904004025C4F80058D4F8005845F40025C4F82C
:100914000058D4F8045845F40075C4F80458D4F8C1
:10092400085845F44025C4F80858D4F80C5825F460
:100934004025C4F80C58D4F80C5845F48025C4F864
:100944000C58D4F8245825F0F005C4F82458D4F8E9
:10095400245845F04005C4F8245814E7059C013494
:1009640016E700BF005400400004024040420F005C
:1009740000580040005C00400000024003681B0671
:10098400FCD54160704708B54A1E12F8011F01B931
:1009940008BDFFF7F3FFF8E71D4B1A6B42F00102A5
:1009A4001A631A6C42F400321A64A3F560531A688D
:1009B40022F0F0021A601A6842F0A0021A601A6A61
:1009C40022F47F421A621A6A42F4EE421A629A6868
:1009D40042F0F0029A605A6822F00C025A60DA6817
:1009E40022F0F002DA60A3F5DE3300225A611A61C4
:1009F400DA6000EB5102B2FBF1F29A60DA6842F479
:100A0400005242F00C02DA601A685B68704700BF5B
:100A1400003802402DE9F74F604904466048FFF76B
:100A2400B2FFFFF7B9FC022C31D0032C3AD0012CD1
:100A340043D15C495A485C4D5C4E5D4CFFF7A3FFC3
:100A44004FF03C083B275B4B5B493A463046FFF787
:100A540045FE584B584942462846FFF73FFE554A43
:100A640055492046FFF7E8FC0023019344F61F6232
:100A7400019B934228DD51494948FFF784FF002236
:100A840039462046FFF7FEFD10B34D4916E04D49A7
:100A94004348454D464E454CFFF775FF4FF03C0823
:100AA4003A27D0E748493E48404D414E3E4CFFF777
:100AB4006AFF4FF03B083A27C5E74449384803B07A
:100AC400BDE8F04FFFF75FBF019B01330193CFE710
:100AD400DFF81C913E4F7369B36909F1060BBA46FE
:100AE40019F8011B2046FFF7EEFD73695A06FCD581
:100AF40033690AF8013BD945F2D12046FFF7E8FDF6
:100B040034492748DFF8C890DFF894A0FFF73BFF8B
:100B1400062619F8011B5046013EFFF72FFF16F079
:100B2400FF06F6D12C491E48FFF72DFF2B491C4820
:100B3400FFF729FF324641462046FFF7A3FD08B1DF
:100B44002749BBE7274E6B69DFF88480AB6906F160
:100B5400070916F8011B2046FFF7B5FD6B695B0614
:100B6400FCD52B6908F8013B4E45F2D12046FFF72E
:100B7400AFFD1D490A480A4DFFF705FF072417F882
:100B8400011B2846013CFFF7F9FE14F0FF04F6D1DF
:100B940011490348FFF7F7FE14498FE7900C00084A
:100BA40000440040BF0C0008005C004000580040B6
:100BB40000540040A086010040A5AE02740D000858
:100BC400910D0008EF0C00081F0D00084F0D0008E0
:100BD40020000020A80D0008A50D0008BB0D00088A
:100BE400D80D0008390E0008EF0D0008020E0008A9
:100BF400330E000870B50D4D0D4C641BA410002677
:100C0400A64209D10B4D0C4C00F018F8641BA4103B
:100C14000026A64205D170BD55F8043B984701361D
:100C2400EEE755F8043B98470136F2E7400E00081A
:100C3400400E0008400E0008440E0008F8B500BF3E
:100C4400F8BC08BC9E467047F8B500BFF8BC08BCA9
:040C54009E46704701
:100C58000000000000000000010203040607080964
:100C680052756E6E696E672049324320696E7465ED
:100C7800726E616C206C6F6F706261636B2074655B
:100C880073742E2E2E0D0A000D0A3D3D3D2052751F
:100C98006E6E696E672049324320496E7465726EC4
:100CA800616C204C6F6F706261636B205465737464
:100CB800203D3D3D0D0A000D0A436F6E6669673A97
:100CC8002049324331202D3E204D61737465722CCA
:100CD80020493243322F49324333202D3E20536C72
:100CE800617665730D0A000D0A436F6E6669673A8F
:100CF8002049324332202D3E204D61737465722C99
:100D080020493243312F49324333202D3E20536C42
:100D1800617665730D0A000D0A436F6E6669673A5E
:100D28002049324333202D3E204D61737465722C67
:100D380020493243312F49324332202D3E20536C13
:100D4800617665730D0A00496E76616C6964206D81
:100D58006173746572204944212055736520312CD4
:100D680020322C206F7220332E0D0A000D0A5B549E
:100D78004553545D204D6173746572202D3E205398
:100D88006C61766520410D0A004E6F2041434B206F
:100D980066726F6D20536C6176652041210D0A00E3
:100DA800536C617665204120726563656976656478
:100DB8003A20000D0A5B544553545D204D6173740D
:100DC8006572202D3E20536C61766520420D0A0025
:100DD8004E6F2041434B2066726F6D20536C6176D5
:100DE800652042210D0A00536C617665204220720D
:100DF800656365697665643A20000D0A3D3D3D20CE
:100E0800416C6C2049324320546573747320436FDE
:100E18006D706C6574656420537563636573736680
:100E2800756C6C79203D3D3D0D0A004A414953419E
:080E38004953544D3332463496
:040E4000E9010008BC
:040E4400C5010008DC
:040E48000024F4008E
:0400000508000205E8
:00000001FF
