:020000040800F2
:100000000000022005020008550200085502000801
:1000100055020008550200085502000800000000C3
:100020000000000000000000000000005502000871
:1000300055020008000000005502000855020008A3
:100040005502000855020008550200085502000834
:100050005502000855020008550200085502000824
:100060005502000855020008550200085502000814
:100070005502000855020008550200085502000804
:1000800055020008550200085502000855020008F4
:1000900055020008550200085502000855020008E4
:1000A00055020008550200085502000855020008D4
:1000B00055020008550200085502000855020008C4
:1000C00055020008550200085502000855020008B4
:1000D00055020008550200085502000855020008A4
:1000E0005502000855020008550200085502000894
:1000F0005502000855020008550200085502000884
:100100005502000855020008550200085502000873
:100110005502000855020008550200085502000863
:100120005502000855020008550200085502000853
:100130005502000800000000000000005502000801
:100140005502000855020008550200085502000833
:100150005502000855020008550200085502000823
:100160005502000855020008550200085502000813
:100170005502000855020008550200080000000062
:100180000000000055020008000000000000000010
:1001900055020008000000000000000055020008A1
:1001A00000000000000000000000000055020008F0
:1001B00055020008550200085502000855020008C3
:0401C00055020008DC
:1001C40010B5054C237833B9044B13B10448AFF38D
:1001D40000800123237010BD0400002000000000F3
:1001E400100F000808B5034B1BB103490348AFF3D4
:1001F400008008BD0000000008000020100F000867
:10020400DFF834D00D480E490E4A002302E0D458DA
:10021400C4500433C4188C42F9D30B4A0B4C00234A
:1002240001E013600432A242FBD300F055F800F061
:1002340041FE00F095F87047000002200000002005
:1002440004000020C8110008040000203000002031
:10025400FEE700001C4B1A6842F480321A601A68E8
:100264009103FCD51A6C194942F080521A640A6849
:1002740042F440420A60164A40F205711160154A80
:100284005A601A6842F080721A600F4B1A68920121
:10029400FCD59A689A609A6842F4A0529A609A6867
:1002A40042F400429A609A6822F003029A609A68C3
:1002B40042F002029A60044A936803F00C03082B8C
:1002C400FAD100F013B800BF0038024000700040BB
:1002D400003C0240085A4007034AD2F8883043F4ED
:1002E4007003C2F88830704700ED00E0174A1849DF
:1002F400936803F00C03042B0DD0082B0DD0154B81
:100304000B60124B144A9B68C3F30313D25C0B6853
:10031400D3400B607047114BF2E75368506813F4F5
:10032400800F00F03F00536814BF0C4A094AB2FB27
:10033400F0F0064A5268C2F30142C3F38813013253
:1003440043435200B3FBF2F3DAE700BF0038024044
:10035400000000200024F400280F000840787D01EC
:1003640008B5FFF777FF074907484FF4E13200F07B
:100374003DFB0548054900F0CEFB032000F0D4FB0B
:10038400FEE700BF40A5AE0200440040380F00085D
:10039400254A136B43F002031363244B1A6822F4B7
:1003A40070421A601A6842F4A0421A605A6842F015
:1003B400C0025A605A6942F0C0025A6184B00922EC
:1003C4000020596921F04001596101900199B1F56A
:1003D400967F1DDB596941F04001596102900299F1
:1003E400B1F5967F18DB013AEBD1596921F0800110
:1003F40059610392039AB2F5967F11DB5A6942F070
:10040400C0025A611A6822F470421A6004B070473C
:10041400019901310191D9E7029901310291DEE795
:10042400039A0132E5E700BF0038024000040240AD
:100434001FB58C4B98424DD103F5F2331C6B44F03D
:1004440002041C631C6C44F400141C641B6B0193B5
:10045400019B854B1C6824F470441C601C6844F4A4
:1004640020441C605C6844F0C0045C609C6844F4F4
:1004740070449C60DC6824F47044DC60DC6844F400
:10048400A044DC601C6A24F07F441C621C6A44F0B3
:1004940088441C62036843F400430360002303930D
:1004A400039BC72B40F3DB80036823F40043036002
:1004B400002303606D4BB1FBF3F34360013352003F
:1004C400B1FBF2F1C1610362036843F0010303600D
:1004D40004B010BD664B98425ED103F5F0331C6B3B
:1004E40044F006041C631C6C44F480041C641B6B01
:1004F4000193019B5C4B1C6824F440141C601C6831
:1005040044F400141C605C6844F480645C609C687F
:1005140044F440149C60DC6824F44014DC60DC681F
:1005240044F48014DC605C6A24F470645C625C6A89
:1005340044F480645C62D3F8004424F04074C3F84B
:100544000044D3F8004444F00074C3F80044D3F8E2
:10055400044444F48054C3F80444D3F8084444F0F5
:100564004074C3F80844D3F80C4424F04074C3F82E
:100574000C44D3F80C4444F08074C3F80C44D3F80E
:10058400244424F47024C3F82444D3F8244444F4C5
:100594008024C3F824447DE7364B98427FF47AAF35
:1005A40003F5EE331C6B44F005041C631C6C44F42B
:1005B40000041C641B6B0293029B2F4B1C6824F4E5
:1005C40040341C601C6844F400341C605C6844F4CF
:1005D40080745C609C6844F440349C60DC6824F45F
:1005E4004034DC60DC6844F48034DC605C6A24F011
:1005F4000F045C625C6A44F004045C62D3F8004853
:1006040024F44024C3F80048D3F8004844F40024F8
:10061400C3F80048D3F8044844F40074C3F8044809
:10062400D3F8084844F44024C3F80848D3F80C48E5
:1006340024F44024C3F80C48D3F80C4844F4802430
:10064400C3F80C48D3F8244824F0F004C3F8244831
:10065400D3F8244844F04004C3F824481AE7039B21
:1006640001331CE7005400400004024040420F00E4
:1006740000580040005C00400000024083699B0772
:10068400FCD4036843F4807303604369DB07FCD53F
:1006940042EA4102026143699A0702D58369002054
:1006A400704743695B05F6D5436923F4806343616E
:1006B400036843F4007303604FF0FF3070474369ED
:1006C4001A06FCD5016143695B07FCD570470368D2
:1006D40043F400730360704770B5A14CA04286B028
:1006E40076D104F5F234256B45F002052563256CBB
:1006F40045F400152564246B0194019C994C2568EC
:1007040025F470452560256845F420452560656815
:1007140045F0C0056560A56845F47045A560E568C9
:1007240025F47045E560E56845F4A045E560256A73
:1007340025F07F452562256A45F0884525620468D1
:1007440044F40044046000240294029CC72C3CDD61
:10075400834C256825F400452560834DB1FBF5F5F0
:10076400656001355E00B1FBF6F6E6612562550071
:1007740045F48045A560256845F4806545F001058C
:100784002560046844F40044046000240594059C36
:10079400C72C40F3E1800468520024F40044046050
:1007A40042F48042704CB1FBF4F4446001345B00C9
:1007B400B1FBF3F1C16104628260036843F48063B6
:1007C40043F00103036006B070BD029C0134BBE733
:1007D400664CA0425ED104F5F034256B45F0060565
:1007E4002563256C45F480052564246B0394039CE0
:1007F4005C4C256825F440152560256845F40015F2
:100804002560656845F480656560A56845F4401514
:10081400A560E56825F44015E560E56845F48015B4
:10082400E560656A25F470656562656A45F480650E
:100834006562D4F8005425F04075C4F80054D4F827
:10084400005445F00075C4F80054D4F8045445F439
:100854008055C4F80454D4F8085445F04075C4F8DD
:100864000854D4F80C5425F04075C4F80C54D4F84A
:100874000C5445F08075C4F80C54D4F8245425F471
:100884007025C4F82454D4F8245445F48025C4F8BD
:10089400245476E7364CA04295D104F5EE34256B0A
:1008A40045F005052563256C45F400052564246B96
:1008B4000494049C2F4C256825F440352560256854
:1008C40045F400352560656845F480756560A56864
:1008D40045F44035A560E56825F44035E560E568F4
:1008E40045F48035E560656A25F00F056562656A43
:1008F40045F004056562D4F8005825F44025C4F891
:100904000058D4F8005845F40025C4F80058D4F829
:10091400045845F40075C4F80458D4F8085845F44C
:100924004025C4F80858D4F80C5825F44025C4F8D8
:100934000C58D4F80C5845F48025C4F80C58D4F855
:10094400245825F0F005C4F82458D4F8245845F068
:100954004005C4F8245814E7059C013416E700BF89
:10096400005400400004024040420F000058004080
:10097400005C004000000240F0B500F13F431A4C17
:1009840003F57E03266B01259B0A05FA03F3334323
:100994002363066801FA05F70323BB4026EA03062E
:1009A400066006680224BC403443046084681C4327
:1009B400846044688D4024EA05054560C46824EADF
:1009C4000303C360CB0800EB830001F00701036A53
:1009D40089000F248C4023EA04030362036A8A40DB
:1009E4001A430262F0BD00BF003802403C4B9842FB
:1009F40070B504460D46164620D13A4A3A48536C1F
:100A040043F01003536409210722FFF7B5FF0722BF
:100A14000A213548FFF7B0FF0023636105EB560157
:100A24002361B1FBF6F1E360A160E36843F4005392
:100A340043F00C03E3602368636870BD2B4B98425A
:100A44000CD1284A2848136C43F400331364022160
:100A54000722FFF791FF07220321DAE7244B98428C
:100A64000DD1204A2348136C43F4802313640A21D4
:100A74000722FFF781FF072205211F48CAE71F4B02
:100A840098420CD1174A1848136C43F4002313649A
:100A940000210822FFF770FF08220121B9E7184B53
:100AA40098420DD10F4A1448136C43F48013136415
:100AB4000C210822FFF760FF124808220221A9E74F
:100AC400114B9842B9D1074A0B48536C43F02003A9
:100AD400536406210822FFF74FFF08220721CCE7C1
:100AE4000010014000380240000002400044004071
:100AF400004800400004024000080240004C00404E
:100B040000500040000C02400014014003681B0622
:100B1400FCD54160704708B54A1E12F8011F01B99F
:100B240008BDFFF7F3FFF8E72DE9F04FA04987B0C0
:100B34000446A048FFF7EFFFFFF72AFC022C32D04F
:100B4400032C3CD0012C46D19B499A489B4E9C4F88
:100B54009C4DFFF7E0FF4FF03C084FF03B099A4BE8
:100B64009A494A463846FFF7B7FD974B974942469C
:100B74003046FFF7B1FD944A94492846FFF758FCE4
:100B84000023039344F61F62039B93422ADD90499A
:100B94008848FFF7C0FF002249462846FFF76EFD4C
:100BA40020B38C4918E08C498248844E854F844D8B
:100BB400FFF7B1FF4FF03C084FF03A09CFE7874900
:100BC4007C487F4E7F4F7D4DFFF7A5FF4FF03B08DC
:100BD4004FF03A09C3E78249764807B0BDE8F04FC1
:100BE400FFF799BF039B01330393CDE77B69DFF8DC
:100BF40028B2BB697B4B00939A465C4614F8011BF0
:100C04002846FFF75CFD784B7A695006FCD53A69B3
:100C14000AF8012BA342F1D12846FFF758FD654895
:100C24007249DFF8C0A1FFF776FF624806241AF87C
:100C3400011B013CFFF76AFF14F0FF045D48F6D185
:100C44006B49FFF768FF6B495A48FFF764FF1022AE
:100C54002146644800F052F9224641462846FFF7EF
:100C64000DFD08B16449B7E7DFF8B0A17369B36952
:100C74005C4B544614F8011B01932846FFF71FFDF3
:100C84005E4A019B71694906FCD5316903F8011B71
:100C94009442EFD12846FFF71AFD46485849FFF71A
:100CA4003AFF504B4348072413F8011B0193013CBE
:100CB400FFF72CFF14F0FF043E48019BF4D14C498C
:100CC400FFF729FF049444F61F62049B934210DD4E
:100CD4004C493848FFF71FFF10220021414800F01B
:100CE4000DF9012249462846FFF7C8FC28B14649B8
:100CF40072E7049B01330493E7E76B69AB692B68E4
:100D040043F480632B607B699A07FCD57B69DFF829
:100D1400D490BB697B691B06FCD51BF8013B3B6186
:100D2400052C06D12B6823F480632B602846FFF73B
:100D3400CEFC6B695806FCD50134E4B22B6909F882
:100D4400013B062CE6D17B6930491A48DFF86490F0
:100D540023F480637B61FFF7DEFE224F17F8011B4B
:100D64004846013CFFF7D2FE14F0FF04F6D12049B7
:100D74001048FFF7D0FE059444F61F62059B93428A
:100D840011DD23490B48FFF7C6FE10220021154848
:100D940000F0B4F8012241462846FFF76FFC002812
:100DA4003ED01C4918E7059B01330593E6E700BFD5
:100DB400600F0008004400408F0F0008005C0040F2
:100DC4000058004000540040A086010040A5AE0237
:100DD4004410000861100008BF0F0008EF0F00085E
:100DE4001F10000820000020B71100087810000828
:100DF4000D1100088B100008A8100008BE1100088F
:100E0400BF100008D2100008EF10000810110008ED
:100E14002911000846110008B1110008B711000893
:100E24006B69AB692B6843F480632B607369990722
:100E3400FCD573691A4FB36973691A06FCD51AF89D
:100E4400013B3361062C06D12B6823F480632B60AD
:100E54002846FFF73CFC6B695B06FCD50134E4B221
:100E64002B6907F8013B072CE6D173690D490E483D
:100E74000D4D23F480637361FFF74DFE009B2846FC
:100E840013F8011B0093013CFFF740FE14F0FF042C
:100E9400F4D106490448FFF73EFE05499CE600BF2D
:100EA4002000002067110008004400400D110008D4
:100EB4008011000870B50D4D0D4C641BA410002664
:100EC400A64209D10B4D0C4C00F020F8641BA41071
:100ED4000026A64205D170BD55F8043B984701365B
:100EE400EEE755F8043B98470136F2E7C0110008D5
:100EF400C0110008C0110008C411000802440346D0
:100F0400934200D1704703F8011BF9E7F8B500BF1D
:100F1400F8BC08BC9E467047F8B500BFF8BC08BCD6
:040F24009E4670472E
:100F28000000000000000000010203040607080991
:100F380052756E6E696E672049324320696E74651A
:100F4800726E616C206C6F6F706261636B20746588
:100F580073742E2E2E0D0A000D0A3D3D3D2052754C
:100F68006E6E696E672049324320496E7465726EF1
:100F7800616C204C6F6F706261636B205465737491
:100F8800203D3D3D0D0A000D0A436F6E6669673AC4
:100F98002049324331202D3E204D61737465722CF7
:100FA80020493243322F49324333202D3E20536C9F
:100FB800617665730D0A000D0A436F6E6669673ABC
:100FC8002049324332202D3E204D61737465722CC6
:100FD80020493243312F49324333202D3E20536C70
:100FE800617665730D0A000D0A436F6E6669673A8C
:100FF8002049324333202D3E204D61737465722C95
:1010080020493243312F49324332202D3E20536C40
:10101800617665730D0A00496E76616C6964206DAE
:101028006173746572204944212055736520312C01
:1010380020322C206F7220332E0D0A000D0A5B54CB
:101048004553545D204D6173746572202D3E2053C5
:101058006C61766520410D0A004E6F2041434B209C
:1010680066726F6D20536C6176652041210D0A0010
:10107800536C6176652041207265636569766564A5
:101088003A20000D0A5B544553545D204D6173743A
:101098006572202D3E20536C61766520420D0A0052
:1010A8004E6F2041434B2066726F6D20536C617602
:1010B800652042210D0A00536C617665204220723A
:1010C800656365697665643A20000D0A5B5445538B
:1010D800545D20536C6176652041202D3E204D6182
:1010E800737465720D0A004E6F2041434B2066727F
:1010F8006F6D20536C617665204120286F6E2072D9
:1011080065616429210D0A004D617374657220724E
:10111800656365697665642066726F6D20413A2063
:10112800000D0A5B544553545D20536C617665206D
:1011380042202D3E204D61737465720D0A004E6F7A
:101148002041434B2066726F6D20536C6176652099
:101158004220286F6E207265616429210D0A004DB6
:10116800617374657220726563656976656420666B
:10117800726F6D20423A20000D0A3D3D3D20416CC2
:101188006C2049324320546573747320436F6D702B
:101198006C65746564205375636365737366756CF9
:1011A8006C79203D3D3D0D0A004A41495341495360
:0811B800544D333246340000AF
:0411C000E901000839
:0411C400C501000859
:0411C8000024F4000B
:0400000508000205E8
:00000001FF
